:1080000068CF00208DD30000A7B7010061D3000026
:1080100061D3000061D3000061D3000061D3000090
:108020000000000000000000000000009DCB0000E8
:1080300061D30000000000003DCB000061D30000D0
:1080400025CC000025CC000025CC000025CC00006C
:1080500025CC000025CC000025CC000025CC00005C
:1080600025CC000025CC000025CC000025CC00004C
:1080700025CC000025CC000025CC000025CC00003C
:1080800025CC000025CC000025CC000025CC00002C
:1080900025CC000025CC000025CC000025CC00001C
:1080A00025CC000025CC000025CC000025CC00000C
:1080B00025CC000025CC000025CC000025CC0000FC
:1080C00025CC000025CC000025CC000025CC0000EC
:1080D00025CC000025CC000025CC000025CC0000DC
:1080E00025CC000025CC000025CC000025CC0000CC
:1080F00025CC000025CC000025CC000025CC0000BC
:1081000025CC000025CC000025CC000025CC0000AB
:1081100025CC000025CC000025CC000025CC00009B
:1081200025CC000025CC000025CC000025CC00008B
:1081300025CC000025CC000025CC000025CC00007B
:1081400025CC000025CC000025CC000025CC00006B
:0481500025CC00003A
:04815400FFFFFFFF2B
:1081580081F0004102E000BF83F0004330B54FEAF0
:1081680041044FEA430594EA050F08BF90EA020F5D
:108178001FBF54EA000C55EA020C7FEA645C7FEAF0
:10818800655C00F0E2804FEA5454D4EB5555B8BF13
:108198006D420CDD2C4480EA020281EA030382EA84
:1081A800000083EA010180EA020281EA0303362D16
:1081B80088BF30BD11F0004F4FEA01314FF4801CE9
:1081C8004CEA113102D0404261EB410113F0004FFB
:1081D8004FEA03334CEA133302D0524263EB4303B2
:1081E80094EA050F00F0A780A4F10104D5F1200E50
:1081F8000DDB02FA0EFC22FA05F2801841F10001AB
:1082080003FA0EF2801843FA05F359410EE0A5F17E
:1082180020050EF1200E012A03FA0EFC28BF4CF0AF
:10822800020C43FA05F3C01851EBE37101F0004565
:1082380007D54FF0000EDCF1000C7EEB00006EEB72
:108248000101B1F5801F1BD3B1F5001F0CD34908FC
:108258005FEA30004FEA3C0C04F101044FEA445253
:1082680012F5800F80F09A80BCF1004F08BF5FEADA
:10827800500C50F1000041EB045141EA050130BDBA
:108288005FEA4C0C404141EB0101013C28BFB1F5CC
:10829800801FE9D291F0000F04BF01460020B1FA17
:1082A80081F308BF2033A3F10B03B3F120020CDAEA
:1082B8000C3208DD02F1140CC2F10C0201FA0CF0C8
:1082C80021FA02F10CE002F11402D8BFC2F1200C2D
:1082D80001FA02F120FA0CFCDCBF41EA0C019040E3
:1082E800E41AA2BF01EB0451294330BD6FEA04042C
:1082F8001F3C1CDA0C340EDC04F11404C4F1200217
:1083080020FA04F001FA02F340EA030021FA04F328
:1083180045EA030130BDC4F10C04C4F1200220FA7F
:1083280002F001FA04F340EA0300294630BD21FABD
:1083380004F0294630BD94F0000F83F4801306BF83
:1083480081F480110134013D4EE77FEA645C18BF77
:108358007FEA655C29D094EA050F08BF90EA020F0E
:1083680005D054EA000C04BF1946104630BD91EA06
:10837800030F1EBF0021002030BD5FEA545C05D109
:108388004000494128BF41F0004130BD14F5800448
:108398003CBF01F5801130BD01F0004545F0FE41BC
:1083A80041F470014FF0000030BD7FEA645C1ABFF1
:1083B800194610467FEA655C1CBF0B46024650EA28
:1083C800013406BF52EA033591EA030F41F4002154
:1083D80030BD00BF90F0000F04BF0021704730B5DA
:1083E8004FF4806404F132044FF000054FF00001AF
:1083F80050E700BF90F0000F04BF0021704730B570
:108408004FF4806404F1320410F0004548BF404244
:108418004FF000013EE700BF42004FEAE2014FEA99
:1084280031014FEA02701FBF12F07F4393F07F4F74
:1084380081F06051704732F07F4208BF704793F077
:108448007F4F04BF41F40021704730B54FF460748A
:1084580001F0004521F000411CE700BF50EA01028D
:1084680008BF704730B54FF000050AE050EA010236
:1084780008BF704730B511F0004502D5404261EBA6
:1084880041014FF4806404F132045FEA915C3FF4E7
:10849800D8AE4FF003025FEADC0C18BF03325FEA84
:1084A800DC0C18BF033202EBDC02C2F1200300FA35
:1084B80003FC20FA02F001FA03FE40EA0E0021FA5A
:1084C80002F11444BDE600BF80F0004002E000BFA6
:1084D80081F0004142001FBF5FEA410392EA030FA7
:1084E8007FEA226C7FEA236C6AD04FEA1262D2EBF1
:1084F8001363C1BFD218414048404140B8BF5B42F6
:10850800192B88BF704710F0004F40F4000020F08E
:108518007F4018BF404211F0004F41F4000121F0A4
:108528007F4118BF494292EA030F3FD0A2F10102EE
:1085380041FA03FC10EB0C00C3F1200301FA03F12C
:1085480000F0004302D5494260EB4000B0F5000F4F
:1085580013D3B0F1807F06D340084FEA310102F10E
:108568000102FE2A51D2B1F1004F40EBC25008BFC0
:1085780020F0010040EA03007047490040EB00008A
:10858800013A28BFB0F5000FEDD2B0FA80FCACF18B
:10859800080CB2EB0C0200FA0CF0AABF00EBC250B8
:1085A80052421843BCBFD0401843704792F0000FA6
:1085B80081F4000106BF80F400000132013BB5E7F9
:1085C8004FEA41037FEA226C18BF7FEA236C21D06F
:1085D80092EA030F04D092F0000F08BF08467047D4
:1085E80090EA010F1CBF0020704712F07F4F04D1A2
:1085F800400028BF40F00040704712F100723CBFB5
:1086080000F50000704700F0004343F0FE4040F4DE
:10861800000070477FEA226216BF08467FEA23639C
:108628000146420206BF5FEA412390EA010F40F487
:10863800800070474FF0000304E000BF10F00043D3
:1086480048BF40425FEA000C08BF704743F09643BA
:1086580001464FF000001CE050EA010208BF7047D5
:108668004FF000030AE000BF50EA010208BF70475C
:1086780011F0004302D5404261EB41015FEA010C71
:1086880002BF84460146002043F0B64308BFA3F169
:108698008053A3F50003BCFA8CF2083AA3EBC2534B
:1086A80010DB01FA02FC634400FA02FCC2F120026A
:1086B800BCF1004F20FA02F243EB020008BF20F0A1
:1086C8000100704702F1200201FA02FCC2F1200207
:1086D80050EA4C0021FA02F243EB020008BF20EAFC
:1086E800DC7070474FF0FF0C1CEAD0521EBF1CEA2A
:1086F800D15392EA0C0F93EA0C0F6FD01A4480EA18
:10870800010C400218BF5FEA41211ED04FF0006300
:1087180043EA501043EA5111A0FB01310CF000402C
:10872800B1F5000F3EBF490041EAD3715B0040EA52
:10873800010062F17F02FD2A1DD8B3F1004F40EB22
:10874800C25008BF20F00100704790F0000F0CF0F5
:10875800004C08BF49024CEA502040EA51207F3AB9
:10876800C2BFD2F1FF0340EAC250704740F4000094
:108778004FF00003013A5DDC12F1190FDCBF00F085
:1087880000407047C2F10002410021FA02F1C2F133
:10879800200200FA02FC5FEA310040F1000053EACF
:1087A8004C0308BF20EADC70704792F0000F00F01D
:1087B800004C02BF400010F4000F013AF9D040EA23
:1087C8000C0093F0000F01F0004C02BF490011F4B7
:1087D800000F013BF9D041EA0C018FE70CEAD153B5
:1087E80092EA0C0F18BF93EA0C0F0AD030F0004C35
:1087F80018BF31F0004CD8D180EA010000F00040E9
:10880800704790F0000F17BF90F0004F084691F0A6
:10881800000F91F0004F14D092EA0C0F01D14202E0
:108828000FD193EA0C0F03D14B0218BF084608D1A9
:1088380080EA010000F0004040F0FE4040F40000F3
:10884800704740F0FE4040F4400070474FF0FF0C86
:108858001CEAD0521EBF1CEAD15392EA0C0F93EACD
:108868000C0F69D0A2EB030280EA010C49024FEA1F
:10887800402037D04FF0805343EA111143EA1013D8
:108888000CF000408B4238BF5B0042F17D024FF490
:10889800000C8B4224BF5B1A40EA0C00B3EB510F6B
:1088A80024BFA3EB510340EA5C00B3EB910F24BF54
:1088B800A3EB910340EA9C00B3EBD10F24BFA3EBD9
:1088C800D10340EADC001B0118BF5FEA1C1CE0D1A1
:1088D800FD2A3FF650AF8B4240EBC25008BF20F054
:1088E800010070470CF0004C4CEA50207F32C2BFA8
:1088F800D2F1FF0340EAC250704740F400004FF045
:108908000003013A37E792F0000F00F0004C02BF75
:10891800400010F4000F013AF9D040EA0C0093F03F
:10892800000F01F0004C02BF490011F4000F013B99
:10893800F9D041EA0C0195E70CEAD15392EA0C0F01
:1089480008D142027FF47DAF93EA0C0F7FF470AF39
:10895800084676E793EA0C0F04D14B023FF44CAF7C
:1089680008466EE730F0004C18BF31F0004CCAD111
:1089780030F000427FF45CAF31F000437FF43CAF4D
:108988005FE700BF4FF0FF3C06E000BF4FF0010C6F
:1089980002E000BF4FF0010C4DF804CD4FEA400251
:1089A8004FEA41037FEA226C18BF7FEA236C11D09B
:1089B80001B052EA530C18BF90EA010F58BFB2EB4E
:1089C800030088BFC81738BF6FEAE17018BF40F0CE
:1089D800010070477FEA226C02D15FEA402C05D182
:1089E8007FEA236CE4D15FEA412CE1D05DF8040B07
:1089F800704700BF844608466146FFE70FB5FFF79A
:108A0800C9FF002848BF10F1000F0FBD4DF808ED51
:108A1800FFF7F4FF0CBF012000205DF808FB00BF42
:108A28004DF808EDFFF7EAFF34BF012000205DF89C
:108A380008FB00BF4DF808EDFFF7E0FF94BF0120E9
:108A480000205DF808FB00BF4DF808EDFFF7D2FFE6
:108A580094BF012000205DF808FB00BF4DF808ED29
:108A6800FFF7C8FF34BF012000205DF808FB00BFF6
:108A780042000ED2B2F1FE4F0BD34FF09E03B3EB80
:108A8800126209D44FEA002343F0004323FA02F0AC
:108A980070474FF00000704712F1610F01D1420298
:108AA80002D14FF0FF3070474FF00000704700BF11
:108AB80053B94AB9002908BF00281CBF4FF0FF313D
:108AC8004FF0FF3000F00CB8ADF1080C6DE904CEA2
:108AD80000F008F8DDF804E0DDE9022304B070478F
:108AE800704700BF2DE9F04786468C460846089E29
:108AF800154674461946002B40F0C1808542B2FAEB
:108B080082F245D94AB1C2F1200300FA02FC95402D
:108B180094402EFA03F343EA0C0C4FEA154EA8B220
:108B2800230CBCFBFEF80EFB18CC08FB00F943EA4B
:108B38000C43994528D9EB1808F1FF3704D2994519
:108B480002D9A8F102072B44A3EB0903A4B2B3FB93
:108B5800FEFC0EFB1C330CFB00F044EA0344A0426D
:108B680014D92C190CF1FF3304D2A04202D9ACF16C
:108B780002032C44241A43EA07401EB1D4400023C0
:108B880034607360BDE8F0874746DDE76346F1E788
:108B980092BB431B01214FEA154EAFB2200CB3FB29
:108BA800FEFC0EFB1C330CFB07F840EA0343984518
:108BB80061D9EB180CF1FF3004D2984502D9ACF119
:108BC80002002B44A3EB0803A4B2B3FBFEFC0EFB8C
:108BD8001C330CFB07F744EA0344A7424DD92C1970
:108BE8000CF1FF3304D2A74202D9ACF102032C44A2
:108BF800E41B43EA0040C0E7C2F1200395409440DB
:108C080020FA03F12EFA03F34FEA154E9040AFB263
:108C18000343B1FBFEFC0EFB1C10190C0CFB07F800
:108C280041EA0041884522D969180CF1FF3004D285
:108C3800884502D9ACF102002944A1EB08019BB296
:108C4800B1FBFEFC0EFB1C110CFB07F743EA0143CA
:108C58009F420ED9EB180CF1FF3104D29F4202D982
:108C6800ACF102012B44DB1B41EA004193E760466B
:108C7800E3E76146F7E76046A4E76346B8E783425F
:108C880006D916B9002108467CE7C6E900E0F9E7ED
:108C9800B3FA83F78FB9834201D3724508D8BEEB84
:108CA800020460EB030301209C461EB9002169E71A
:108CB8003846FAE7C6E9004CF8E7C7F1200CBB4094
:108CC8000EFA07F522FA0CF42EFA0CF1BA401C43FE
:108CD80020FA0CF3B8404FEA144901431FFA84FE06
:108CE800B3FBF9F809FB18300B0C08FB0EFA43EA42
:108CF80000439A4540D9E31808F1FF3004D29A4559
:108D080002D9A8F102002344A3EB0A0389B2B3FBFA
:108D1800F9F809FB183308FB0EFE41EA03418E45BA
:108D28002CD9611808F1FF3304D28E4502D9A8F175
:108D38000203214443EA0040A1EB0E01A0FB029884
:108D48004145CE46434602D306D14D4504D20138AB
:108D5800B9EB020E68EB0403002EA7D0B5EB0E02A8
:108D680061EB030101FA0CFC22FA07F3F9404CEA23
:108D78000303C6E9003199E74046C5E74346D9E70A
:108D88002DE9F04182B06A4D00AFD5F85C319968A1
:108D980011F001011AD140F603403A1D05F044FBD9
:108DA8000446002840F0BE80786883681B785BB969
:108DB80005F1CC03D3E8AF2F02F00902D3E8EF1F87
:108DC800C3E8E42F002CF9D10CF0ACFB002141F2F0
:108DD80003003A1D05F028FB0446002840F0A28055
:108DE8007E680822B1685348013112F06EFD3046A2
:108DF8000CF098FB214641F201003A1D05F014FBE6
:108E08000446002840F08E80786883685A7885F890
:108E180068205A88A5F86A201A7985F86920B3F875
:108E28000720A5F86C20B3F80530A5F86E300CF0D3
:108E380079FB214641F202003A1D05F0F5FA044695
:108E480000286FD17C684022A1683B48013112F0AC
:108E58003CFD20460CF066FB07F04AFA0446002861
:108E680060D195F88230990626D46C4688B06A4657
:108E7800324B4FF4C4515361314B32489361032351
:108E880042F8103F12F0F0FDA54695F874305A06E6
:108E98005ED46C4688B06A462B4B4FF4C25153617E
:108EA8002A4B28489361032342F8103F12F0DCFD57
:108EB800A5466FF0120435E0072140F6334005F06F
:108EC80079FA8046002800F047810721083014F01D
:108ED80031FE21460722064612F002FD4523337073
:108EE8000623224674703471414640F63340F370CD
:108EF80005F09AFA0446A8B9012140F6314005F078
:108F080059FA0646002800F027810121083014F09C
:108F180020FE2246314640F6314005F085FA0446E7
:108F28000028B2D020460837BD46BDE8F08100BF12
:108F3800008000207080002078800020361C02000D
:108F4800A821020074FC0100681C0200A021020094
:108F5800002142F203003A1D05F066FA0446002893
:108F6800E0D17E680822B168AB48013112F0ADFC4F
:108F780030460CF0D7FA214642F202003A1D05F0BD
:108F880053FA04460028CDD17C68A368B3F80120C1
:108F980091B2A5F8FC2021B1DA78A048114615F065
:108FA80084FF20460CF0BEFA95F8746016F020068F
:108FB80018D1022140F66D4005F0FCF9044600285E
:108FC80000F0CA800221083014F0B4FD01232146C4
:108FD80003704670324640F66D4005F025FA0446A7
:108FE80000289FD195F894301B0712D5002142F232
:108FF8001C003A1D05F018FA0446002892D178683A
:109008008368D3F80120D3F80530C5E936230CF07E
:1090180089FA95F8D0309E0622D53846B91C05F055
:1090280083FA044600287FF47DAF042142F224002D
:1090380005F0C0F90646002800F08E8004210830AB
:1090480014F078FD3B88224603807B8831464380B4
:1090580042F2240005F0E8F9044600287FF462AFE4
:1090680095F8D0305C0610D5002142F22A003A1D4E
:1090780005F0DAF9044600287FF454AF786883686D
:109088005B7885F818310CF04DFA082142F201009E
:1090980005F090F9044600285ED00821084414F031
:1090A80049FD95F8D01040F2022311F0400F08BF97
:1090B8000323024688074CBF43F02C0043F00C0002
:1090C8008B0695F8D13048BF40F0400013F0090FE7
:1090D80095F89A3018BF40F4006003F00603CE07F5
:1090E80048BF40F01000062B08BF40F4C0700021B4
:1090F80012F0C5FC2146002242F2010005F094F965
:10910800044600287FF40EAF95F87430B5F8FC10CB
:10911800980624D4C9B941F205003A1D05F084F92E
:10912800044600287FF4FEAEB5F8FC307C684BB9E5
:10913800A368B3F80120A5F8FC209A88374811469F
:1091480015F0B3FE20460CF0EDF9082140F6014079
:1091580005F030F90446B8B96FF06804E2E6002972
:10916800F3D16C4688B06A462D4B4FF4C251536117
:109178002C4B2D489361032342F8103F12F074FCE6
:10918800A5466FF00404CDE60821084414F0D2FC8B
:1091980095F8D0300246D90734D44FF0005123480F
:1091A80012F06DFC2146002240F6014005F03CF922
:1091B800044600287FF4B6AE01463A1D4FF601403A
:1091C80005F032F91A4CB8B36D4688B06A46194BA7
:1091D800C2E9053403234FF4C451134842F8103F41
:1091E80012F042FCAD4606F0F1FC044600287FF47C
:1091F80099AE08F0A5F8044600287FF493AE05F070
:1092080091FF8FE602A1D1E90001C9E7AFF3008021
:109218009088000200800020D0800020008100207B
:10922800901C0200B921020074FC010010880002A1
:109238007B210200B71C02007B686E469D688AB0DD
:10924800B5F80130032B96BF4A4A4B4952F8231010
:109258006A46C2E9071340F2013348489384484BF1
:10926800C2E905044FF4335142F8103F454812F063
:10927800FBFBB5F80120B546022AB5F803304DD1FD
:10928800032B4BD8404A52F823106E468AB06A46E0
:10929800C2E9071340F201333C489384384BC2E9D2
:1092A80005044FF4335142F8103F364812F0DCFB06
:1092B800B5466B7995F806C0032B98BF344AB5F8C4
:1092C8000760D5F809006D468EB094BF52F8231098
:1092D80029496A46C2E9071340F20133DFF8B4E0CE
:1092E80013862D4BC2E909C6C2E905E4D06244F2EF
:1092F800C04142F8103F234812F0B6FBAD467868EB
:109308000CF010F900214FF602403A1D05F08CF8D8
:10931800064628B188B06A46204B59E71649B4E793
:10932800D7F804800222D8F808101D48013112F03D
:10933800CCFA4046DFF86C800CF0F4F898F8B930B5
:109348005B077FF550AF31464FF603403A1D05F0F5
:109358006BF818B188B06A46134B39E701227C686C
:1093680008F1B800A168114412F0AFFA20460CF0D9
:10937800D9F838E7100202002A160200DF1C0200A2
:109388000500000174FC010000020200FC1C020040
:10939800F0010200181D020008000001491D02002A
:1093A800B980002000800020761D020038B5114CDD
:1093B8001546237A22FA03F3DA0709D5012384F83C
:1093C800203010F0D5FCA26A01460B4804F044FA9C
:1093D80094F83430DD40EB070BD5012384F84C308A
:1093E80010F0C6FC626D0146BDE83840024804F042
:1093F80033BA38BD0882002050070200914210B5E8
:1094080023D22C2311FB03F1435C4418BBB16068E1
:1094180015F096FB40B910F0ABFCA26A01460F4864
:1094280004F01AFA802307E010F0A2FCA26A0146B1
:109438000B4804F011FA002384F8243010BD10F012
:1094480097FCA26A01460748EAE710F091FCBDE8DC
:1094580010400146044804F0FFB900BF7A07020033
:10946800A7070200C9070200F00702009142F8B5F9
:109478002FD22C2311FB03F1435C44184BB3D4E9DE
:1094880003326068217A1343DD02D0F808C0076907
:1094980006D513F4402F03D0DA0748BF83F44023DE
:1094A80001263D6823F480128E40DB074CBF35430C
:1094B800B5433D60DCF80030984700280ADA10F020
:1094C80057FCA26A0146084804F0C6F9802384F8CC
:1094D8002430F8BD10F04CFCA26A0146034804F0A1
:1094E800BBF90023F3E700BF1D0802005208020081
:1094F80091422DE9F0410546174640D22C2311FB35
:1095080003F1435C4418002B41D0237E43B910F08B
:109518002FFCA26A0146BDE8F0411E4804F09CB940
:1095280010F026FCA26A01461B4804F095F9606811
:10953800217AE66933028268D0F810C008D5012381
:10954800DCF800C08B4013EA0C0F18BF86F0C06629
:1095580006F0C063D2F8188006F0B072C0473946EA
:10956800284610F01BFC0D4B0D49C1E9013060681D
:109578008368DB695BB1BDE8F0410122184710F050
:10958800F7FBBDE8F0410146064804F065B9BDE8BF
:10959800F08100BF83080200B8080200B5930000FC
:1095A800A89A0020F007020010B5012200212648E1
:1095B80010F0F0FB01220021234810F0E6FB022204
:1095C80000212148FFF71AFF022200211E48FFF759
:1095D8004DFF022200211C48FFF78AFF01221A488A
:1095E800114610F0D7FB01221748114610F0CDFBA9
:1095F800022201211448FFF701FF0222012112482B
:10960800FFF734FF022201210F48FFF771FF00F036
:1096180077F9002005F044FE044640B110F0E6FB5F
:109628002246BDE810400146084804F015B900F08C
:1096380017F900F047F910F0D9FBBDE810400146D2
:10964800034804F009B900BF08820020FE080200A0
:109658002709020010B50021054810F0BDFB04469B
:1096680018B10021024810F0ACFB204610BD00BF25
:109678000882002010B50121054810F0ADFB044612
:1096880018B10121024810F09CFB204610BD00BF14
:109698000882002038B510F0A9FB0B4C054620685D
:1096A800FEF7BAFE02460B460848294604F0D4F8ED
:1096B800207902F005FA10F099FB22790146BDE8FD
:1096C8003840034804F0C8B8B49A0020570902008B
:1096D8007E09020038B510F089FB0B4C0546A068DE
:1096E800FEF79AFE02460B460848294604F0B4F8ED
:1096F800207B02F04BFA10F079FB227B0146BDE893
:109708003840034804F0A8B8B49A00209D09020024
:10971800C609020010B50221002000F0B3F9FEF7D7
:1097280089FF074C0749A060FEF7DCFF0649FFF7F1
:109738008DF80649FEF7CEFEFFF79AF9207310BDA3
:10974800B49A00200000C84200404E450000704214
:1097580010B50221012000F095F9FEF76BFF074CC8
:1097680007492060FEF7BEFF0649FFF76FF80021A2
:10977800FEF7B0FEFFF77CF9207110BDB49A002007
:109788000000C84200404E4510B50C4610F03BFBA7
:109798002246BDE810400146014804F05DB800BF0C
:1097A800E209020010B50C4641B110F02CFB22462C
:1097B800BDE810400146054804F04EB810F023FB00
:1097C800BDE810400146024804F046B8100A0200FD
:1097D800390A020030B593B012F02AFD0378044626
:1097E80007AD032B27D8DFE803F002202224154910
:1097F800284612F00DF8A379059562781E21049287
:10980800A2780AA80392E2780292227901926279F8
:1098180000920D4A10F07CFB10F0F5FA0AAA0146F6
:109828000A4804F019F813B030BD0949E0E70949BE
:10983800DEE70949DCE70A212846084A10F068FBF8
:10984800D9E700BF540A0200760A0200990A02000A
:109858005B0A0200620A02006C0A0200E13202009E
:1098680030B589B010F0CFFA114D014603AC11485C
:1098780003F0F2FF0FCD0FC42B68022223600023F0
:109888000D49009303A806F021FC044640B110F0EE
:10989800BAFA22460146094803F0DEFF09B030BD96
:1098A80010F0B1FA0146064803F0D6FFF6E700BF0C
:1098B80050FD0100B90A020028FE0100D80A020082
:1098C800070B020010B50B4807F018FD044640B11D
:1098D80010F099FA2246BDE810400146064803F008
:1098E800BBBF10F090FABDE810400146034803F0F2
:1098F800B3BF00BF60820020320B0200670B02007A
:1099080070B50B4C204615F01BF980B1A5682046B0
:109918002B6808499847002809DB204615F010F9FC
:1099280028B1054920462B68BDE87040184770BD2E
:1099380098F801003EFE010052FE0100904270B509
:109948001ED22823114C03FB00467278C2B1358C15
:10995800327995420CD3334600250833013AAA429E
:109968000FDC0A2303FB002204EB8204A16007E05A
:109978000A2303FB0053013504EB83039960358404
:1099880070BD5E68013543F8046BE8E78C820020FF
:10999800F8B505469542084630D22822184F02FBF2
:1099A8000572537843B3118C14798C4224D1FEF795
:1099B80045FE0A23013C03FB054407EB84070646E2
:1099C8003889FEF73BFE0F490546FEF783FD014641
:1099D8003046FFF72FF8031E18BF01230949284610
:1099E8001C46FEF775FD01463046FFF72DF80028A6
:1099F8000CBF002304F001031846F8BD0023FBE761
:109A08008C8200208C2EBA43904270B505460B4ECE
:109A18000CD2282404FB006463783BB1FFF7B8FF3D
:109A280050B994F82430013384F82430282303FBF8
:109A3800056696F8240070BD0023F5E78C820020A7
:109A48008842034630B518D228220D4D02FB005239
:109A5800507888B1108C78B100220A2411466343EB
:109A68005C1805EB8404A4680131C9B22244884219
:109A780092B2F5D8B2FBF0F030BD0020FCE700BF91
:109A88008C82002001282DE9F34704460E4670D841
:109A980014233A4D03FB00535A7932B10122187945
:109AA80037491B8A82404A600B821423634355F866
:109AB80003A005EB0309DAF8083050465B68304923
:109AC80098472823DFF8BC8003FB04835B78002BCE
:109AD8003FD000284FDB2C4BB3F9007099F80530C4
:109AE8000BB3142299F8073002FB0451042B0ABF68
:109AF800DAF80830B9F80E301B8902FB045591F8E2
:109B080010907B43897AA879890648BF09F1FF3903
:109B180001A948BF5FFA89F901930BF041FD10B91B
:109B2800019F47FA09F7BDB2324629462046FFF79A
:109B38006BFFB0B92825324639462046FFF7FEFEAE
:109B4800002305FB0485314685F82430FFF778FFAC
:109B5800E861282303FB0488B8F81C0002B0BDE8BC
:109B6800F087324629462046FFF74EFF0228E1D803
:109B7800EFE70020F2E74FF6FF70EFE738FE01004D
:109B8800788200208C8200206C9F00202DE9F04F05
:109B980095B000AFD7F878B0BB61CBF3C0030446EB
:109BA8007A623B61396251B90D460378467880780C
:109BB80000EB83002044AE421AD8031B3B6294F8A2
:109BC8000290E3784E467B61B9F1000F02D01BF09A
:109BD800010F16D17B6953BB7B6A1BB12046BA695A
:109BE800396A98473D6A28465437BD46BDE8F08F24
:109BF80000F10108404611F029FE013040440135CA
:109C0800D9E7636894F800A0FB617B6A4FEA8A028F
:109C1800FA6004EB8A0A002B40F00481D046002643
:109C28003D6A09EB0A03434550D1CA4413E01BF0CF
:109C3800020FD1D094F800A04FEA8A03FB60636852
:109C480004EB8A0AFB617B6A002B7AD13D6AB9F181
:109C5800000F50D14E461BF0050F0CBF0223012305
:109C68007B627B690AEB43090BF002033B62CA453E
:109C7800B9D01AF8021B1AF8013C54F82380AE4BED
:109C8800984502D3AD4B98453BD33B69002B45D053
:109C9800F86910F0F6F8002840D0E8468AB06A461D
:109CA800A74B5361A74B9361FB69C2E9073140F2A7
:109CB80001339384A44B42F8103F00234FF43251F0
:109CC800A24801F049FC023DC546D0E718F8012B2F
:109CD8007B6254F8220011F0B9FDFA6F7B6A0130FB
:109CE8003AB1D7F8802096423EBFFA6F22F81600A4
:109CF8000136054497E71BF004061CBF7E6ACA4478
:109D0800A9E73B6923B1F86910F0BBF80028C4D172
:109D18001BF0010F05D17B6AED1AA8E73B6A002BFF
:109D2800A5D0404611F092FDFB6F43B1D7F88030C3
:109D38009E423FBFFA6F431C22F816300136054495
:109D480095E7B9F1000F72D01BF0040672D0C8462F
:109D5800002607F140004A46514611F0B6FD7B69DE
:109D6800CA445B00BB607B690AEB43037B610BF071
:109D780002037B607B699A455ED123781BF0020F52
:109D8800FB61637818BF002106EB030208BF4FEAA6
:109D980058011BF0010FD2B240F09D801BF0040F58
:109DA80014BF4046002094F802B094F803A03B6129
:109DB8006270A070E1702046BA69F9687B6A9847BA
:109DC800051EFFF610AFFB69414623703B69BA696F
:109DD800637084F802B07B6A84F803A007F140003E
:109DE8009847B0F10008C0F2A3803B6ABA69A3EBB8
:109DF8000901FB687869C91ABB68C91A7B6A984760
:109E08000028C0F297804FF0000BA84408EB00052B
:109E180007F1300AB34560DB0021BA6908467B6A5E
:109E28009847E0E64FF0000807F1300093E74E4608
:109E3800C84694E7B04692E71AF8021B3E4A1AF859
:109E4800015C54F82530934202D33C4A93421CD318
:109E58003B6923B1F86910F014F800288AD17B68AF
:109E6800F3B908F1280207F12800024408F10103B8
:109E780002F8101C07F1500208F1020852FA83F3A5
:109E88005FFA88F803F8105C74E73B692BB1F8694E
:109E98000FF0F7FF00287FF46DAF1BF0010F09D01A
:109EA80006F1280207F12801731C561806F8205CF1
:109EB800DEB25FE71BF0040F3FF45CAF08F1280245
:109EC80007F1280108F1010302EB010808F8105C0A
:109ED8005FFA83F84EE7002065E71BF80A3054F86C
:109EE800239087F82F30FB6FFBB133F81B800121DB
:109EF800BA697B6A07F12F00984700281ADB0544E6
:109F0800B8F1000F06D1484611F0A0FC00F1010895
:109F18001FFA88F841464846BA697B6A984700287C
:109F280008DB05440BF1010B74E7D7F87C80DEE70A
:109F3800454658E6054656E628F70100BC3F0200AC
:109F48008B0B0200320C020005000001ACFC010082
:109F5800014B1B68184700BFDC820020014B1860CA
:109F6800704700BFDC82002007B50B46002102467F
:109F78000091034800F02AF903B05DF804FB00BF24
:109F8800599F000030B5002587B0CDE9030104468C
:109F9800009503A90548059500F018F9DDE9043096
:109FA8009842B8BF255407B030BD00BFD99E010004
:109FB8002DE9F047058B04462807904611D402295D
:109FC80005F0070540F0CD80204610F07DF978B106
:109FD8000138218B042811D8DFE800F0C3106D8503
:109FE800950001290CBF45F0100545F02005258393
:109FF80088F31188BFF36F8FBDE8F08701F0070A77
:10A00800AA4500F0A6800027B9463E46A368002B63
:10A0180000F0BD8041F00801218388F31188BFF367
:10A028006F8FA168002900F0BB800D68002900F03F
:10A03800B780334652462046D1F80480C047002DE9
:10A0480076D02B6829461D46F0E701F007035A1F12
:10A05800012A1BD8002221F00701062B276889B2A4
:10A06800C4E9002209D13B4603E0628B01326283D6
:10A078001B68002BF9D141F002012046218310F022
:10A0880023F900287BD041F0200177E0042B0AD186
:10A0980021F0070189B22046218310F015F910B18B
:10A0A80041F020012183218B01F0070AAA4550D0F5
:10A0B8000027B946AAE7236921F0070141F0060104
:10A0C800062DD3F8009021832DD1B9F1000F40D08F
:10A0D80041F00801218388F31188BFF36F8F204670
:10A0E8003949C84729E021F00701236941F00401F3
:10A0F80089B2042DD3F804902183E6D000274FF0CD
:10A10800040A3E4682E721F00701236941F0050170
:10A1180089B2052DD3F808902183D6D000274FF0B7
:10A12800050A3E4672E700274FF0060A3E466DE7ED
:10A138002B4687E7B9F1000FD1D14FF02003EFF399
:10A14800118883F31288BFF36F8F238B23F00803E2
:10A158002383258BEA062ED525F01003238305F0EB
:10A1680007056669218B002EBFF66FAF00232768AD
:10A17800C4E9003321F0070141F001012183218B5B
:10A188004FF0000901F0070AAA457FF43FAF002FFE
:10A198009BD041F00801218388F31188BFF36F8FAA
:10A1A800002FC7D03D68394633465246204610F046
:10A1B800B7F82F46F4E7AB067FF51AAF25F0200372
:10A1C800238305F00705FFE655A301002DE9F04FAD
:10A1D800824616461C4600259FB00391307810B978
:10A1E800284600F089BD731C2528069306D00399DC
:10A1F800D0470028C0F2808501352BE218220021C3
:10A2080010A811F06DFB7378252B7DD0002398469C
:10A218009E469C461F46701C014610F8012B2B2AAF
:10A2280000F0A18000F29880202A00F09F80232A65
:10A2380000F09F802BB19DF8483043F040038DF823
:10A248004830B8F1000F05D09DF8483043F020039E
:10A258008DF84830BEF1000F05D09DF8483043F026
:10A2680010038DF84830BCF1000F05D09DF8483038
:10A2780043F008038DF848302FB19DF8483043F07B
:10A2880004038DF848309DF8483003F04400442812
:10A2980003D16FF386138DF848309DF848302A2A89
:10A2A80043F080038DF848307FD19DF849204B1C3E
:10A2B80042F001028DF849201A782E2A0CBF01219C
:10A2C80000219DF8492061F341028DF8492078D199
:10A2D8005A782A2A6ED000224FF00A0C0133194608
:10A2E80011F8010BA0F13007092F40F2AF809DF85B
:10A2F80048101492C1F3400040EAD2700A4660F355
:10A3080041028DF848205CE0B21C06928DF84B3073
:10A318009DF84930DF0740F1548154F8042B002A96
:10A32800049208DA9DF8482042F004028DF848208B
:10A33800049A52420492580740F14B8154F8047B26
:10A34800002F80F24A819DF849306FF341038DF860
:10A3580049304FF0FF3740E12D2A0DD0302A7FF4E5
:10A3680069AF012358E74FF0010C55E74FF0010E94
:10A3780052E74FF001084FE701274DE703460EFB70
:10A388000272303A184610F8017BA7F1300CBCF184
:10A39800090FF3D999428FD09DF848101392D20F24
:10A3A80062F341018DF8481086E70B4600224FF012
:10A3B8000A0EE7E79DF84920023342F004028DF8BF
:10A3C80049201A786C2A61D045D8682A4BD06A2A65
:10A3D80065D04C2A6BD013F8012B782A06938DF898
:10A3E8004B2000F2AD806D2A6ED8692A00F2A88051
:10A3F800572A00F28880412A04D0A2F14503022B93
:10A4080000F29E8004219DF84A3002F0DF02A2F19A
:10A41800410861F30203D8F100029DF8491042EBAC
:10A42800080262F3C7110A068DF84A308DF8491000
:10A43800CBB200F1C48003F07802182A40F0AE8055
:10A448006FF3C6038DF8493000239DE00CFB020230
:10A458000B46303A43E7742A25D07A2ABBD1062125
:10A468009DF849200CE05A78682A9DF8492006D1C1
:10A47800012161F3C6028DF849200233ABE70221BE
:10A4880061F3C6028DF849200133A4E75A786C2A93
:10A498009DF8492001D10421EBE70321F0E70521CC
:10A4A8009DF84920ECE707219DF84920E8E7BDF829
:10A4B800482022F4F04222F0020242F4804242F0A4
:10A4C8000202ADF84820DFE76E3AD3B201229A4083
:10A4D80040F282431A429DF8493038D112F0240FD5
:10A4E80060D1D1072CD503219DF84A2003F07803C9
:10A4F800A3F1400C61F30202DCF100038DF84A205D
:10A5080043EB0C0340E00120A2F15801C9B200FA64
:10A5180001F111F4624F7FF475AF40F6010319425F
:10A528009DF8493019D111F4043F09D09DF84A200B
:10A5380060F3020203F07803402B8DF84A2083D1A0
:10A548009DF8483043F001038DF848307CE702213C
:10A558009DF84A2061F30202ECE702209DF84A10B8
:10A5680003F0780360F30201402B8DF84A1002BF14
:10A578009DF8481041F001018DF84810632A7FF4D6
:10A5880063AF003B18BF01239DF84820C2F3400188
:10A598000B4363F341028DF84820B9E613F0380FF6
:10A5A800CED151E703219DF84A2013F0780F61F3CB
:10A5B800020214BF012300238DF84A20E4E7012397
:10A5C800E2E79DF94820002AACBF4FF0FF32139A0A
:10A5D800B0E699077FF5BDAE149F0023CDE913338C
:10A5E8009DF84A309DF8491003F00702042A07D164
:10A5F8008A0705D49DF94920002AACBF06270D27F4
:10A6080003F00703012BC1F3C30133D1CB1E042B85
:10A6180004D8DFE803F021464621210023680129F8
:10A628004FEAE372CDE910321CD19DF94030DA17B8
:10A63800CDE9103204349DF8483007939B0750D079
:10A6480032465046069B03990FF09BFF0028C0F244
:10A6580053830544069EC1E554F8043BDA17CDE957
:10A668001032E8E70229E5D11AB243F3C033CDE945
:10A678001023DFE7022B24D1CB1E042B04D8DFE8FC
:10A6880003F018101018180001294FF0000254F8B0
:10A69800043B14D00229CDE91032CCD19BB21093DF
:10A6A800C9E7073424F00704F4E80223CDE91023AE
:10A6B800C1E754F8043B109300231193BBE7DBB2C6
:10A6C800CDE7042B08D1073424F00704D4E900238C
:10A6D8000834CDE91023AEE7032BACD154F8043B82
:10A6E800DDE79DF84BB0BBF1780FB3D8BBF1570F3E
:10A6F80049D8BBF1250F00F09180BBF1240FA9D9EF
:10A70800BBF1410F03D0ABF14502022AA2D8DDE923
:10A718001012002AC0F23681079B180700F1358114
:10A72800C3F300194FEA4919C2F30A50C2F31302DE
:10A73800002840F02D8151EA020614BF01260026A8
:10A74800D20242EA5152C902BBF1460F40EA010E59
:10A7580042EAE07C08BF4FF0660B5EEA0C0CCDE9DC
:10A768000C1200F09881002E40F044810D9AA0F25E
:10A77800FE3842F000420D920020DDE90C12064638
:10A788004FF0050C50E1ABF15802202A3FF662AFBA
:10A7980001A050F822F000BF2BA900005DA6000020
:10A7A8005DA600005DA600005DA600005DA6000095
:10A7B8005DA600005DA600005DA6000017A70000CA
:10A7C8005DA60000AFA80000C3A8000017A70000FE
:10A7D80017A7000017A700005DA60000C3A8000087
:10A7E8005DA600005DA600005DA600005DA6000055
:10A7F80065A900002BA9000031A900005DA6000092
:10A808005DA600002BA800005DA600002BA9000093
:10A818005DA600005DA600002BA90000584603991C
:10A82800E6E4002F109E3ADB3946304611F015F861
:10A838003718002E3FF40EAF4FF000099DF84A304C
:10A8480013F01002059200F04C82023013F040031E
:10A85800DDF84C80089318BF149B404418BFC018FB
:10A86800049BCDF81C80002B40F356829DF84820AD
:10A878001B1A04935307C2F3800B00F14D82500654
:10A8880040F13D82B9F1000F07D048460399D047FF
:10A898000028C0F23182D9460135302230E23046F4
:10A8A80010F0D4FFC4E7109B4FF0000901208DF889
:10A8B8005C300DF15D0717AEC0E7079B1E0754BF5C
:10A8C800C3F300194FF02B09DDE9102358BF4FEAF5
:10A8D8004919002B06DA4FF02D09524263EB430366
:10A8E800CDE91023DDE910010DF17503009312AADB
:10A8F80017AB0FF000FE0646002F0CDB9DF8482032
:10A908000DF175039B1B6FF386129F428DF848204B
:10A9180001D9FB1A1393002E3FF49CAE0DF1750775
:10A9280056E04FF00009DDE71098002800F0D481C8
:10A938000DF175030093002117AB12AA0FF0DBFD90
:10A94800BDF84A30064603F0EF0343F4F04343F002
:10A9580010034FF00009ADF84A30CDE7109B0729E6
:10A968003FF678AEDFE801F00C04060C08080C0C82
:10A978001D706FE61D806DE6EA17C3E9005269E6AF
:10A988001D6067E64FF02D09CEE64FF02B09CBE6A8
:10A9980040F2FF76B0422AD10A43ABF141031ED1FF
:10A9A8001A2B35BF492369234E216E2134BF462215
:10A9B80066228DF85C309DF848308DF85D106FF395
:10A9C80086138DF85E208DF848300DF15F0717AEBD
:10A9D800B81BB9F1000F3FF431AF01302EE7192B46
:10A9E8008BBF6E234E23612141211A46E1E70026E1
:10A9F800A6E6013849185241002AFADACDE90C12C4
:10AA0800B4E6490841EAC2715208B2F1333F404600
:10AA180008F10108F5D200F1020801200CFB02FE42
:10AA2800A1FB0C12013E724418F1020FE9DB08B1D8
:10AA3800CDE90C12DDE90C21B8F1000F2EDCC8F1CC
:10AA4800040008F11C08A0F1200CC24021FA00F310
:10AA580001FA08F80BF0DF0042EA080221FA0CFCC0
:10AA6800472842EA0C02089338D1F31C01DBB742AD
:10AA78002ADAABF10203002F5FFA83FB7DDD9DF834
:10AA88004800013F800678D43B1E18BF0123059378
:10AA980007F101082CE04FF000086DE6023241F1A1
:10AAA80000010CA808F1FF380136CDE90C210FF0A0
:10AAB800F3FCDDE90C2192184941002908F1FF381F
:10AAC800F9DACDE90C21B5E79DF84830BF1B9906A6
:10AAD80051D43B1E18BF0123059304E00023BBF1AA
:10AAE800660F0593D4D117EB06084FF0660B46D4D2
:10AAF800B8F1100FA8BF4FF0100810204FF00061F8
:10AB08000B900020CDE90E01DDE90E03B8F1000F2E
:10AB180038D10899121841EB0301B1F1805F3FD297
:10AB2800CDE90C21079BBBF1660F03F0200240F032
:10AB3800B280002E3FDC30218DF85C10002A63D1F2
:10AB4800002F40F3A8812E228DF85D2086B1724235
:10AB5800BA42A8BF3A46002A1392A7EB0207D4BF0D
:10AB6800002201229DF84A1062F345118DF84A101F
:10AB78000DF15E0837E00023AEE7002387E74FF0CA
:10AB88000008BAE7400840EAC3705B08CDE90E0345
:10AB98000EA8099208F1FF380FF07EFC099AB3E776
:10ABA800520842EAC1720CA84908CDE90C210136C5
:10ABB8000FF072FCB6E70DF15C080B99002909DD6E
:10ABC8000BA90CA807920FF07FFC013E079A08F822
:10ABD800010BF2D113969AB9002F40F35A812E2116
:10ABE80008F8011B0026002F17DD0B9A002A14DD38
:10ABF8000BA90CA80FF068FC013F08F8010BF2E75D
:10AC08002E2208F8012BEDE72E228DF85D20002E6C
:10AC1800AED0002F9BDC0DF15E08059B002B4ED1BA
:10AC2800149747460BF0DF02452A23D1002EBABFFE
:10AC380076422D232B23632EC8BF64217B70C4BFAB
:10AC4800B6FBF1F301FB13664FF00A01C8BF03F12D
:10AC58003000B6FBF1F3D2BFBA1CFA1CB87087F803
:10AC680000B0174603F1300001FB1363303307F8D7
:10AC7800020B5370139B002B2CDC149B002BD4BFAE
:10AC8800002301239DF84A2063F3861200238DF8E0
:10AC98004A203B709BE60BA90CA807920FF014FC06
:10ACA800079A30288DF85C0018BF06F1FF3612B9F4
:10ACB800002F40F3F0802E228DF85D2058E747469C
:10ACC80017F8012C08F1FF38302AF8D02E2A08BFCF
:10ACD8004746A7E70123D5E7704F81467E1F052029
:10ACE800ACE51A0748BF0130B0E510460992039950
:10ACF800D0470028099A05DA1FB0BDE8F08F202256
:10AD0800DDF810B0594600290BF1FF3BEDDC049B40
:10AD1800CDF810B02B445D1AB9F1000F05D04846A4
:10AD28000399D0470028E7DB0135089B002B75D035
:10AD38009DF94930002B28DBB3469BF80000D94623
:10AD4800A0F13003092B0BF1010B3FD99DF84A30D4
:10AD5800AE1B99064E4407D44246002A08F1FF3834
:10AD680039DC079B33449E1A99F800002E280AD133
:10AD78000399D0470028BFDBB8F1000F06F10106A0
:10AD88002FDC09F101094D4635E0B14699F800007C
:10AD9800C846702809F1010913D1AE1B149D464419
:10ADA8003544AB1B002B31DC3B46424650460399E9
:10ADB8000FF0E7FB00289FDB3044049E054606445D
:10ADC80062E00399D0470028E0DA95E70399D04775
:10ADD8000028B2DA90E730200399D0470028BBDA80
:10ADE8008AE730200399D04708F1FF38C2E7039972
:10ADF800D047002880DB2878A846A0F13003092B2B
:10AE080005F10105F3D9A6EB0906C7E73020039938
:10AE1800D0470028FFF670AF0136C2E79DF84A30E8
:10AE2800DA0601D41B0706D530200399D04700283D
:10AE3800FFF662AF0135059B3BB103999DF84B00C6
:10AE4800D0470028FFF658AF0135A84406E0302067
:10AE58000399D0470028FFF64FAF0135A8EB05034B
:10AE6800002BF4DC3B463246504603990FF089FB31
:10AE78000028FFF641AF28449FE720200399D047D8
:10AE88000028FFF639AF0135731B002BF5DCFFF7FF
:10AE9800E1BB1646C1E60DF15D08BEE6610C020095
:10AEA80048B1054B054A1B68B3FBF2F35843044B02
:10AEB80043F0010318477047AC84002040420F005C
:10AEC80020FE0100F0B583B000AF381D0CF07CFB0C
:10AED800284B98424BD10BF08BFE041E15DA3879BB
:10AEE8000CF078FB6D4688B06A46234B5361234BC0
:10AEF800C2E90634042342F8103F00234FF40151FD
:10AF08001F4800F029FBAD462DE040F607031D4D14
:10AF18007C71AE68FB8074687B6814B96FF0570465
:10AF2800E0E708212846184AA047041EDADB3369FF
:10AF3800002BF3D00122082128469847041ED1DBB4
:10AF480001233D79114AAB40C2F804357879FE797E
:10AF580012F0D5FF0E4B45F00045B600C0F8805002
:10AF68009D51002CBED120460C37BD46F0BD6FF078
:10AF78001204B7E70000AD0B660C0200920C020049
:10AF88001CFD0100B0F80100E1AF000000700140B5
:10AF980080A1024038B5049CC4F3072528460BF06D
:10AFA8008FFC00210A4BA20B02F0FC02C0F88010B3
:10AFB80099500123E4B2074AA3402846C2F808354D
:10AFC8000BF034FE2046BDE838400CF003BB00BF50
:10AFD80080A0024000700140F7B5144683681B69E1
:10AFE8000BB100229847C4F3072630460BF070FCDB
:10AFF8000546304612F083FF0027104B220E9200C0
:10B00800C0F880709F5030460BF05AFCA20B0C4BD6
:10B0180002F0FC021344E2B242F000421A60094B0B
:10B02800C0F8802005F13202009330463B46019477
:10B03800520012F06DFF03B0F0BD00BF80A10240C6
:10B0480080A002409DAF000012F0DBBF2DE9F04761
:10B05800044607464FF00109DFF8508014B9384616
:10B06800BDE8F08794FAA4F5B5FA85F509FA05F371
:10B078002E0108EB05156FEA030A24EA03042B7B6B
:10B08800002BEBD058F806301B694BB9464473685F
:10B0980004222846196807EA0A0700F049FADDE79A
:10B0A800284698470028D9D1F0E700BF34FD0100B1
:10B0B80030B5002289B00F490F4814F092F90022E8
:10B0C80000230024CDE906230E230C4DCDE90334DB
:10B0D8004FF440722846CDE90144094B09490094D0
:10B0E8000DF016FC0849284613F0F0FD204609B07B
:10B0F80030BD00BF15B10000E08E0020508A00204E
:10B10800E5B3000078AC0020AA0C020001480DF05D
:10B118008DBD00BF248700202DE9F04780461F48D9
:10B128000F460FF0A6FC0646002830D0002528461A
:10B13800BDE8F087237B73B12368DB680BB1204639
:10B14800984723681B69D3B96368042220461968A5
:10B1580000F0EEF9013610344C45EBD3B8F1000F8E
:10B16800E5D0002DE2D02846FFF770FF0546002FF6
:10B17800F7D000214FF4A4700EF07CFAF1E72046D6
:10B1880098470028E0D00AFA06F31D43E2E705468F
:10B198004FF0010A024CDFF80C90DDE7D49A00204A
:10B1A80034FD010044FD0100014B53F820007047B5
:10B1B80074FE010008B5034608462BB1044A136023
:10B1C80000F0F2FB002008BD6FF01500FBE700BFA0
:10B1D800E082002010B5044C237813B903480DF021
:10B1E80025FD0123237010BD8A9F0020248700209D
:10B1F80010B5044606480FF03CFC3CB1054BD3E8BB
:10B20800EF1F0139C3E8E21F002AF8D110BD00BFC3
:10B21800CC9A0020D09A002000200146034BD3E8A6
:10B22800EF0FC3E8E21F002AF9D17047CC9A00203B
:10B2380070B5FFF7F1FF0546074C084EB44200D33E
:10B2480070BD63685B792BB123685B6813B12946CD
:10B25800204698471034F1E734FD010044FD010011
:10B2680010B5044C044920460FF05CFA034B1C60EF
:10B2780010BD00BF4C86002060FE0100C49A00206B
:10B2880008B50023064A4FF400411370054A0648E2
:10B298001360FFF78FFFBDE80840FFF7E1BF00BF6D
:10B2A8008B9F0020CC9A002077AA0100014600223B
:10B2B800002301480FF057BA4C86002001480FF0D0
:10B2C800F0BA00BF4C860020024B014618680FF008
:10B2D80038BB00BFC49A002001480FF066BB00BF0E
:10B2E8004C86002070B5264B1878002847D0FFF709
:10B2F800E5FF054670B1234BD3E8EF1F0139C3E8DA
:10B30800E21F002AF8D1204C204EB4422DD3284603
:10B31800FFF7DAFF1E4B1F4C1B68002B19DD14F0DA
:10B3280038F84FF47A72A0FB020302FB0131C30B19
:10B3380043EA4143D4E900209B1A40F2E9324FEA3C
:10B34800D13161EB0001934271F1000101D3FFF7A4
:10B358006FFFD4E9003213F57A7342F10002C4E9B1
:10B368000032BDE87040FFF7B7BF63685B7923B16F
:10B378002368294620461B6898471034C5E770BDE6
:10B388008A9F0020D09A002034FD010044FD01006E
:10B39800CC9A0020D88E002070B50D4D297861B95F
:10B3A8000120FFF7B9FE0B4C0B4EB44206D3FFF752
:10B3B80099FF0028FBD101232B7070BD63685B796E
:10B3C8001BB1236820469B6898471034EDE700BFFF
:10B3D8008B9F002034FD010044FD010000212DE970
:10B3E800F0470846FFF798FE044648B340F26768FE
:10B3F8004FF000090EF058F91A4B186030B11A4B8B
:10B408001B68092B02DD19480DF010FC0025184FA8
:10B41800DFF858A044B12046FFF718FE044618B9D3
:10B428004FF0FF384FF0FF39FFF75CFF064628B9A9
:10B43800B5B942464B4650460DF01EFC3546E9E785
:10B448004FF0FF384FF0FF39D4E72B689B691BB1E9
:10B4580000222846114698471035BD42F5D3E8E743
:10B46800044DFAE7C89A0020D09A002024870020CB
:10B4780044FD010034FD010013B518480FF0F9FA36
:10B48800174B1B787BB14FF02003EFF3118483F344
:10B498001288BFF36F8FFFF725FF84F31188BFF37E
:10B4A8006F8F02B010BD0F4B1B68002BF9D050B93D
:10B4B800002200230C48CDE900234FF4004200236A
:10B4C8000EF030FBEDE70A28EBD1074813F095FFA3
:10B4D800064802B0BDE810400DF0A8BBD09A002085
:10B4E8008B9F0020C89A0020E08E0020248700202F
:10B4F80010B5064B04461B6898472146A0600448CF
:10B508000FF0AFF9BDE81040FFF7B6BFE0820020AA
:10B518004C860020044A054B9B1AB1EBD30F34BF6D
:10B5280052F831000020704724FC010034FD01006E
:10B53800084B10B4C31A44681B11013323714368C4
:10B548009A7101224368196043685A7110BCFFF769
:10B5580041BE00BF34FD01002DE9F04FC1F3CB44DB
:10B568008FB0C1F349260D46904699460590173489
:10B57800002E3CD04FF0040B4FF00A0A002209AF0E
:10B5880031460BAB4046CDF808B00197CDF800A086
:10B59800CDE90B220D920796FEF7F8FAC0F30903DE
:10B5A800181920F0070080081E4663F352250693F9
:10B5B800FFF77CFE044678B10022069B10300B9002
:10B5C8000C930D924046CDE9017B0C4A0799CDF8C2
:10B5D80000A00BABFEF7DAFA66F352254B462A4673
:10B5E800204605990FB0BDE8F04F0FF066BA24F079
:10B5F80007008008FFF75AFE0446EDE797AA010006
:10B608000EB403B503AB53F8042B01460448019369
:10B618000FF07AFA02B05DF804EB03B0704700BF90
:10B6280039AB0100CA0605D48B064CBF0249034951
:10B63800FFF7E6BF704700BF25090200983E0200E9
:10B648002DE9F04F89B09B46DDE915769DF8483025
:10B6580004460493DDE913930593049B0D46069273
:10B66800002B00F0878006F0080307930FF00DFA0F
:10B6780006F0020A024600284BD020468549FFF70B
:10B68800BFFF8046BAF1000F08D016F0440F42D130
:10B698002A4620468049FFF7B3FF804406F001039D
:10B6A8005BB17E4B049A204653F822207C4B7D499F
:10B6B800002A08BF1A46FFF7A3FF06F00803002B6D
:10B6C80055D0794B049A204653F822207749FFF742
:10B6D80097FF0546069B2BB11A4620467449FFF78B
:10B6E8008FFF0544BBF1000F05D05A46204671492B
:10B6F800FFF786FF05444544B9F1000F49D1002FF3
:10B708004FD1F30700F1C08031462046FFF78AFF8A
:10B71800B4E08046B6E7684B18680028BDD0674B90
:10B728004FF47A7E1B684FF46162B5FBF3F5B5FB05
:10B73800F0F300FB13550EFB05F5B3FBF2FAB5FB6E
:10B74800F0FC3C2102FB1A3200FB1C55B2FBF1F362
:10B758000EFB05F5B5FBF0F501FB13222046009220
:10B76800CDE901C552465649FFF74AFF95E706F06D
:10B778000805AFE7BBF1010F06D1B9F1000F64D19D
:10B78800002F7BD000250CE0B9F1000FF8D04D4810
:10B798005CE04D484B4622464C490EF041FB002FD9
:10B7A80068D0DFF82C91DFF82CA1102F3146204605
:10B7B800B8464FF0000B28BF4FF01008FFF732FFD4
:10B7C8005D4545DC059B514620461A78FFF718FF72
:10B7D8004FF0010B1BF0070F03D149462046FFF736
:10B7E8000FFFD8453BD9059B5146204613F80B203F
:10B7F800FFF706FF0BF1010BBBF1100FEAD14FF079
:10B80800000B20463449FFF7FBFE5A46059B2046AD
:10B818009A5CA2F120015F2928BF2E222F49FFF749
:10B82800EFFE0BF1010BBBF1100F1DD01BF0070F42
:10B8380003D149462046FFF7E3FED8455A46E5D8E6
:10B8480049462046FFF7DCFEEBE71F48049DA1E7C9
:10B8580049462046FFF7D4FE0BF1010BB0E720461E
:10B868001F49FFF7CDFEC5E7059BB7EB0807434423
:10B8780005939AD1049B002B7FF443AF204609B06F
:10B88800BDE8F04F0FF047B92046054A0549FFF7D4
:10B89800B7FE39E7C40C0200C80C020084FE0100A0
:10B8A800BF0C0200C61B020098FE0100ED0C02004E
:10B8B800F30C0200F70C0200DC9A0020D89A002052
:10B8C800D10C020067AB010039AB010011AB0100DC
:10B8D800643E0200FC0C0200020D0200040D02008E
:10B8E800623E02002DE9F0410F884B6805460C4680
:10B8F80090468E6886B0C7F382175BB1134A9B1ACD
:10B9080043F3CF0100291FDB2078C0F3C200FFF703
:10B9180001FE0346214651F8102B6088C2F34922E4
:10B92800002A01EB020408BF0021C0F3CB00CDE9D7
:10B938000308CDE901140022314628460097FFF795
:10B948007FFE06B0BDE8F0810023E3E724FC010098
:10B9580042F20F7373B58B4228BF0B460568044645
:10B96800052168460D4A0EF0D3FA06466368284654
:10B978000B225B680A490FF0BAF8636832466946D9
:10B9880028465B680FF0B3F863681B2228465B689B
:10B9980004490FF0ACF802B070BD00BF0E170200EA
:10B9A800230D0200070D020000210123064A9042E0
:10B9B80006D8064A01B901231360054B1860704781
:10B9C800012140085B00F2E740420F00D89A0020AE
:10B9D800DC9A0020014B002019607047F49A00207F
:10B9E8000122024B02481A700FF095B88D9F002073
:10B9F800C8FE01000148FFF7ABBF00BFC8FE010049
:10BA080010B5064B0C461868FFF7CEFB2146BDE87B
:10BA1800104003460F220248184700BFF49A00203E
:10BA2800C8FE0100F8B50D460446064F4618B44254
:10BA380001D12846F8BD14F8011BBB6801485B68B2
:10BA48009847F4E768F8010010B5084C86B02478E8
:10BA58008DF81740012402940DF117040194BDF8E4
:10BA68002040009411F0C2FA06B010BD37860020BD
:10BA780080B50D4A0D4B00AF8AB0012908BF1346A7
:10BA88006A460B4951610B49C2E9061340F201337A
:10BA98001384094B42F8103F00234FF41351074811
:10BAA800FFF75AFDBD4680BD910D0200990D0200B9
:10BAB800A20D0200BB0D0200040000012CFC0100D5
:10BAC80000B5642889B08DF8070019D80E4B1822E4
:10BAD8001870002102A80FF003FF0C4B00200393FD
:10BAE8000DF107030493012302A9ADF8143007F000
:10BAF8006BFC10F1800F08BF002009B05DF804FB53
:10BB08006FF01500F9E700BF3786002050FF0100ED
:10BB18000122024B00201A70704700BF909F00203E
:10BB28001FB501240294044C0194BDF818400094F8
:10BB380011F05CFA04B010BD909F002080B50D4A4A
:10BB48000D4B00AF8AB0012908BF13466A460B495E
:10BB580051610B49C2E9061340F201331384094BC2
:10BB680042F8103F00234FF413510748FFF7F4FC45
:10BB7800BD4680BD910D0200990D0200D40D020052
:10BB8800ED0D020004000001C4FC0100062310B5FD
:10BB98000C4C86B0182260700021684623700FF0A4
:10BBA8009FFE094B6946CDE9013402230020ADF818
:10BBB8000C3007F009FC10F1800F08BF002006B018
:10BBC80010BD00BF8E9F0020A0FF010098B500AFF8
:10BBD80098B96C4688B06A46154B16485361164B9F
:10BBE8004FF4C2519361032342F8103F0EF0E2FF75
:10BBF8006FF01500A546BD4698BD836893B96C469D
:10BC080088B06A460D4B0B4853610B4B4FF4C25139
:10BC18009361032342F8103F0EF0CCFF6FF004004D
:10BC2800A546E8E71B680BB19847E4E71846E2E742
:10BC3800060E0200CCFC0100CE0E02001B0E020014
:10BC4800B0B500AF08B101B19AB96C4688B06A4680
:10BC5800164B17485361174B4FF4C2519361032396
:10BC680042F8103F0EF0A6FF6FF01500A546BD463E
:10BC7800B0BD84680CB1E56895B96C4688B06A4671
:10BC88000D4B0B4853610B4B4FF4C2519361032387
:10BC980042F8103F0EF08EFF6FF00400A546E6E76D
:10BCA80041F8040BE3689847E1E700BF3D0E020046
:10BCB800CCFC0100B00E02001B0E0200B0B513460A
:10BCC800044600AF98B96C4688B06A46204B2148B4
:10BCD8005361214B4FF4C2519361032342F8103F43
:10BCE8000EF068FF6FF01500A546BD46B0BD0068B0
:10BCF80090B96C4688B06A46184B16485361164B83
:10BD08004FF4C2519361032342F8103F0EF052FFE3
:10BD18006FF00100A546E8E782680AB1956895B911
:10BD28006C4688B06A460E4B0A4853610A4B4FF47A
:10BD3800C2519361032342F8103F0EF03BFF6FF0AE
:10BD48000400A546D1E70A466168A847CDE700BFC9
:10BD58006D0E0200CCFC01009F0E0200820E020054
:10BD68001B0E020008B50422002102480FF0B8FD9E
:10BD7800002008BD000007200023012213B5044657
:10BD8800CDE90032074BD0E909120CF093F9A36E04
:10BD98001B6823B1E06E02B0BDE81040184702B03E
:10BDA80010BD00BF2609020030B50C460E4985B00B
:10BDB8000291D0F898110546CDE9003100F1E00173
:10BDC8004FF0FF3320460CF0BBF950B9012384F83B
:10BDD8006430D5F8943123B1204605B0BDE8304031
:10BDE800184705B030BD00BFB3AC010038B50C46EC
:10BDF800114605460EF05BFF034638B9284604494C
:10BE08000EF055FF03460020236038BD0120FBE7F4
:10BE1800260902002DE9F04F01238146056946688D
:10BE280085B005F55577D7E8EF2F002A03D1C7E885
:10BE3800E13F0029F7D140F0B880B368B26A043B0B
:10BE48002632B3EB420F4FEA420126BFB3FBF1F3B0
:10BE5800B3FA83F300234FF0010428BFC3F1200392
:10BE6800013B9C4005F5D87800F099801022082104
:10BE780070689A4002EB4402043099400932C5F8D0
:10BE88004802063122F003020A44B16A01FA03FCAF
:10BE9800510001EB4C01C5F84C12B16A994000EB16
:10BEA8004103C5F840320333134423F00303C5F8B4
:10BEB8003C327368C5F84442C5F838323C4B4046BA
:10BEC800C5E9A363316800F003FA044630BBD9F82A
:10BED80004A0D9F81090DAE9073409F52A7B012B78
:10BEE800584608BF103C13F0A0F80023DAF82400E5
:10BEF80030494FF4806201EB802100935846234675
:10BF08000DF016F809F526702B4913F050F8DAF8F9
:10BF1800140083685C681CB96FF05704002137E08F
:10BF28004B46264ADAF81810A04704460028F5D1EF
:10BF3800DAF8140083681B69002BEDD00122DAF8C7
:10BF48001810984704460028E8D11D4B2846C5F824
:10BF580094311C4BC5F898311B4B0393D5F8F83135
:10BF68000293D5F8F031CDE90083D5F85032B26AA2
:10BF7800D5F8501300F076F904460028CED105F123
:10BF8800E0000CF085F90028C5F858030ADB022107
:10BF980038460EF0D8FE204605B0BDE8F08F6FF0A9
:10BFA8000B04BBE76FF01504B8E76FF07704F2E70E
:10BFB80037AD010078AF0020EFAC0100E3AC010021
:10BFC80081BD000009AD01007FAD01002DE9F843F6
:10BFD80006464FF001090569D0F8048005F5557744
:10BFE800D7E8EF3F022B03D1C7E8E29F002AF7D139
:10BFF80049D1264805F140010FF038FC20B16FF017
:10C008000F042046BDE8F883204805F1B0010FF081
:10C018002DFC0028F3D12846D5F850130EF0FFFE6A
:10C02800044670BB71683669486983681B6933B315
:10C03800224689699847044618BB06F52A76494678
:10C0480030460CF0ADFF304605F5D87601F014FA0D
:10C058003046D8F800100EF01FFF044688B9014694
:10C06800E82230460FF03CFC21464FF4D8722846AF
:10C078000FF036FC214638460EF065FEC1E76FF03A
:10C0880057040221F7E76FF07704BAE726090200A0
:10C0980013B504460846216901F55571D1E8AF1F6B
:10C0A800022910D193B1A0B10121CDE90031134685
:10C0B800D0E909120BF0FEFF074B984208BF6FF05A
:10C0C8000B0002B010BD6FF00F00FAE76FF04C00E4
:10C0D800F7E76FF00100F4E72EF8FFFF2DE9F743CB
:10C0E80088461546066906F55573D3E8AF3F022B17
:10C0F8005FD1136823B96FF0150003B0BDE8F08372
:10C108001B78002BF7D0D6F85093B9F1000F33D134
:10C1180006F5CE774FF0FF324FF0FF3338460CF07C
:10C128009BFC30462A6801A9FFF760FE019C1CB9F8
:10C1380038460EF006FEDEE705F10803A3666B69D4
:10C1480084F86490E366E46360B138460EF0F9FD64
:10C1580021463046236E2A68FFF726FE0020C8F8DD
:10C168000040CAE72022296804F140000FF05AFB7A
:10C1780038460EF0E6FDF1E730460F490EF097FD20
:10C1880004460028B7D005F1080383666B69C063CD
:10C19800C366002380F864302022296840300FF0FD
:10C1A80041FB22460121304600F03EF80028D5D058
:10C1B800A1E76FF00F00A0E7260902002DE9F04F74
:10C1C80005460E4690460027D0F8A4A085B0AAF5EB
:10C1D800A474214630460FF049FBE0B9114BA4F195
:10C1E800400B0293DAF810303246CDE90083294635
:10C1F8004FF0FF335846AAF5C4790BF0A1FF60B998
:10C208007023012203FB079383F86420DAF80C30CB
:10C218000BB158469847703417B105B0BDE8F08F98
:10C228000127D6E723AE01001FB5144690B18AB1A5
:10C23800012912D10A4B00F1E0010293D0F898319C
:10C24800403201934FF0FF33204600930BF078FF04
:10C2580004B010BD6FF01500FAE70020F8E700BF42
:10C2680023AE01002DE9F04385B00F46DDE90C81CE
:10C278001446DDE90E251E4628B321B3DFF84CC06D
:10C2880000F1E009002D08BF654697B9CDE90244E1
:10C2980000F5C474204612F040FC02ABCDE900431F
:10C2A8002A463346414648460CF018F805B0BDE822
:10C2B800F083002241460C9248462A4605B0BDE864
:10C2C800F0430CF01BB96FF01500EFE7C5C1000093
:10C2D800F0B50E46044689B000286FD00123024607
:10C2E800C3630023D0F89810364F403040F80C7CD8
:10C2F80042F8301FCDE901334FF0FF330093C36D8F
:10C3080011F00CFF304A06AB92E8030083E8030003
:10C3180018460BF0EFFD0546D8B904F134000BF0D0
:10C32800C9FD0546A8B93946284805AA11F0C8FE2E
:10C33800054670B9059B9A6872B10C33D4F894001D
:10C34800C4F8A0300EF09AFDC4F8D40030B96FF0EC
:10C358000B05284609B0F0BD0346EFE7D4F8940072
:10C368000EF08CFDC4F8D8000028F0D0D4F88C303A
:10C37800D4F8A010C4F8A8300423C4F8AC30C4F82A
:10C38800C4300223A362124BB4F89420D4F8D470BA
:10C39800C4F8B810C4F8D010D4F89010236204F18F
:10C3A800A403A4F8B020C4F8A470C4F8C010A4F87A
:10C3B800C820C4F8BC00A661E362CAE76FF015059F
:10C3C800C7E700BFF90E020064FD0100030F020079
:10C3D800580002002DE9F84305464FF02003EFF31B
:10C3E800118683F31288BFF36F8F4FF00C090D4B42
:10C3F8000D4F1C68DFF834802CB986F31188BFF321
:10C408006F8FBDE8F883D4E90123002D18BF1346C8
:10C418002BB198F8142009FB02F2B85C98472468FD
:10C42800EAE700BF109B0020049B00202C9F0020FF
:10C43800012270B5164B1C7D04F01F039A40D043AF
:10C44800144B610903EB8103D3E8EF1F01EA0005F0
:10C45800C3E8E65F002EF7D10A4213D00E4B0F4D0A
:10C468008BB10C236343EA185178E85C0EF0DFFACD
:10C478000020FFF7AFFF0C235C4300232A192B5140
:10C48800C2E9013370BD83F31188BFF36F8FEFE703
:10C498002C9F0020189B002037AA0100049B002035
:10C4A8002DE9F041324B07461D7D4FF02003EFF395
:10C4B800118883F31288BFF36F8F0C246C432D4BC4
:10C4C8002D4E195D1A19002947D007CA06EB040C2E
:10C4D8008CE8070000221A5588F31188BFF36F8F84
:10C4E8000C236B43F05CF218A8B37B1C10D04FF4FC
:10C4F80000400021D2F808C0204C0023ECFB00418A
:10C508001F4A2046FCF7D4FA0121381A12F021FFFD
:10C518000CF0F2FF0120FFF75DFF1A4B6A0903EBED
:10C528008203012205F01F018A40D3E8EF0F104370
:10C53800C3E8E10F0029F8D1134B3BB10C2303FBEF
:10C5480005F033185978305C0EF065FAFFF770FF84
:10C558000CF0E6FF0120BDE8F0810146284600F016
:10C5680015F80028B8D007C8344484E80700B3E7B2
:10C578002C9F0020F89A0020049B00203F420F00C7
:10C5880040420F00189B00201FAA01002DE9F04F20
:10C5980085B00E4603A900F043F84FF4004704465F
:10C5A8004FF0000B1B4B039DD3F800A0431E1BB29A
:10C5B80003EB4303DFF8608005EB830524B9A1464C
:10C5C800484605B0BDE8F08FC44659466868002360
:10C5D800E0FB07C1114A6046FCF76AFAC4465946AF
:10C5E8000190A8680023E0FB07C10C4A6046FCF7ED
:10C5F8005FFABAF1FF3FA94601D0824505D9731CFD
:10C60800DED0019B1844B042DAD9013CA4B20C3DFB
:10C61800D4E700BF888300203F420F0040420F004C
:10C6280008B9024B0B600020704700BF7C00020075
:10C638000449431E0F3013F8012F8A5C83421A7095
:10C64800F9D170470E0F0200F0B50746264E8DB09F
:10C6580001AD0C460FCE0FC50FCE0FC596E80700EB
:10C6680085E807003846002F39D0002C39D0381F0C
:10C678000246214610344B780D781B0443EA0563C3
:10C68800CD7804312B4311F8025C8C4243EA052330
:10C6980042F8043FEFD10421144C8A07036916D1EC
:10C6A800C3F30742A55C1A0EA25C42EA0562C3F313
:10C6B8000725655DDBB2E35C42EA054242EA0322F4
:10C6C80021F0030330336B4453F82C3C534050F8AB
:10C6D800042F013153402C290361DED101200DB014
:10C6E800F0BD2046FBE700BF6CFD01000E0F020005
:10C6F8002DE9F04F002703689DB002934368DFF8E7
:10C70800BCA103938368DDE902460493C3680593DB
:10C718000369DDE904BE0693436907938369DDE98C
:10C72800062C0893C36998460993089B0093CD5932
:10C738000CAB2DBA5AF8049BDD514FEAF223A944F9
:10C7480083EAB213009D83EA72634B4425EA02052B
:10C7580002EA0C0985EA09052B44434486EA0B05DD
:10C768004FEA743888EAB408254006EA0B0985EAD6
:10C77800090588EAB4580437A844402F03EB0E058E
:10C788004344DE46DDF8008040F088804FF0100A10
:10C798004B490A9151460AF1010A0DF1700E0AF04F
:10C7A8000F070EEB870757F8407C01F00F094FEA97
:10C7B800B748019788EAF71801F10E0707F00F0745
:10C7C8000EEB870757F8407C09314FEAF74E8EEA9F
:10C7D800774ECDF82CE001F00F010DF1700E0EEB45
:10C7E80081010EEB890959F840EC51F8401CBAF167
:10C7F800400F7144DDF804E088EADE08DDF82CE03B
:10C8080041448EEA972E714405EA02084FEAF52E54
:10C818002CEA050787EA08078EEAB51EDDF82880A6
:10C828008EEA756E774458F804EF49F8401C77444F
:10C838000F4400994FEA733E394484EA0607CDF85D
:10C8480028808EEAB30E07EA030704EA06088EEA90
:10C85800B35E87EA080777440F4401EB0B0ECDF867
:10C8680000C0B34622D102993944016003991944A2
:10C87800049B416023448360059B3344C360069B4B
:10C8880073440361079B2B444361089B13448361F2
:10C89800099B6344C3611DB0BDE8F08FB346CDF872
:10C8A80000C0264694461C462A4640E7944626463B
:10C8B8002A461C4675463B466CE700BF7C000200D2
:10C8C800B800020010B50446C8B1702200210EF06D
:10C8D80020FB0B4B0B4A0C49C4E900230B4B0C48BB
:10C8E800C4E902130B4BC4E9040301200A4BA361FA
:10C8F80003F17453A3F52303A3F69243E36110BD38
:10C9080085AE67BB67E6096A72F36E3C3AF54FA5D8
:10C918007F520E518C68059BABD9831F01491022A9
:10C928000A60704710ED00E072B6404080F311884D
:10C93800BFF36F8FBFF34F8F30BF62B6BFF36F8FF8
:10C94800704700BF72B6494081F3118820BF80F359
:10C95800118862B6704700BF2DE9F84F82460C4631
:10C9680000AF002952D0D1E900126E468AB0A36800
:10C978006D464FF0060BA8462848DFF8A490C5E995
:10C988000823C5E90691686148F810BF00234246AC
:10C998004FF441512348FEF7DFFDD4E90312B546B1
:10C9A8006369AD462048C5E90712C5E905096B6208
:10C9B800C5F810B0002342464FF441511948FEF71C
:10C9C800CBFDB54688B0E3696D464FF0040BA84629
:10C9D800164AEB61C5E9052948F810BF002342460D
:10C9E8004FF401510F48FEF7B7FDB546A369AD46B0
:10C9F8000F4AEB61C5E90529C5F810B00023424686
:10CA08004FF401510748FEF7A7FDB54621465046A9
:10CA18000BF088FDBD46BDE8F88F00BF0E10020080
:10CA2800B910020004FD0100411002007410020058
:10CA38008710020040B2002807DB01234109034A9E
:10CA480000F01F00834042F82130704700E100E009
:10CA580040B200280CDB01220649430900F01F0000
:10CA68008240203341F82320BFF34F8FBFF36F8FED
:10CA7800704700BF00E100E0054B420953F822204F
:10CA8800012300F01F0003FA00F01040704700BFB8
:10CA980000E100E040B2002801F10101ACBF00F163
:10CAA8006040064B4FEA4111C9B2ABBF00F5614087
:10CAB80000F00F0080F800131954704714ED00E0DF
:10CAC80030BFFFF7FDBF00BF0B4A08B50B4B22F084
:10CAD8007F029A60BFF34F8FBFF36F8FD3F8882020
:10CAE80022F47002C3F888200BF0DEFD0CF054FE2F
:10CAF80000F03CFC0BF018FE0080000000ED00E0A8
:10CB0800094A0A49936809689867D96708494B68C8
:10CB180043F080534B60002383F31188BFF36F8F7A
:10CB28009368D86F704700BF2C9F0020F006020062
:10CB380000ED00E015498A6882F881E04FF0300086
:10CB48001044EFF3098C80E8F01F202080F312884E
:10CB5800BFF36F8F0E4F4FF00066CA698A603E6060
:10CB680092F981E0906F0023936780F3118802F1B6
:10CB7800300090E8F01F8CF3098802F1000004B53A
:10CB88000EF014FEBDE80440704700002C9F002002
:10CB980004ED00E01EF0040F0CBFEFF30880EFF384
:10CBA8000980816911F8021C0229FFD001B50EF035
:10CBB800EEFD01BD42F8203C009B0D4942F81C3CAB
:10CBC800019B21F0010142F8183C029B42F8081C25
:10CBD80042F8143C4FF0807342F8043C002383670A
:10CBE8004FF43C43203A0265C0F88030704700BFDC
:10CBF800339F0100084B9860836E83F30B881046BF
:10CC080081F30988002163B681F31188BFF36F8F20
:10CC1800002200230DF089F92C9F002001B572B67F
:10CC28000B4A906900281EBF0021916112F055F847
:10CC380062B6EFF30580A0F110004FEAC000054985
:10CC4800014409C99847BDE8014003490847000065
:10CC58002C9F0020C8F8010065CC0000044B99689F
:10CC6800D869884203D003494FF080520A60704760
:10CC78002C9F002004ED00E02DE9F843E84600AFC2
:10CC880088B006460D466A464FF003094D4B4E4C98
:10CC9800536194614FF4C2514C4842F8109F0EF012
:10CCA80089FD4B4BC5469B6ADB060CD588B06A46A6
:10CCB800484B4FF4C251C2E90534444842F8109F2A
:10CCC8000EF078FDC546424B9B6A18070ED5E8461C
:10CCD80088B06A46404B4FF4C251C2E90534032379
:10CCE8003A4842F8103F0EF065FDC546DFF8E0907F
:10CCF800D9F8283099072AD5E84688B06A46374BCC
:10CD08004FF4C251C2E905340323304842F8103FBA
:10CD18000EF050FDD9F83430D9F82820C54612064F
:10CD280015D588B06A46D36104232D492748C2E93E
:10CD380005144FF4015142F8103F0EF03BFDC54673
:10CD48002EB1D9F8283023F08003C9F82830204BB9
:10CD58009B6ADE070ED56E4688B06A46214B4FF4B3
:10CD6800C251C2E905340323184842F8103F0EF0B7
:10CD780021FDB546164B9B6A98060ED56E4688B0BF
:10CD88006A46194B4FF4C251C2E9053403230F48D0
:10CD980042F8103F0EF00EFDB54600200C4B9A6A83
:10CDA800D10658BF9A6A9A6A920642BF5A6A22F412
:10CDB80000525A629A6A42F0FF029A622870BD468F
:10CDC800BDE8F883C2100200CD14020004FD010082
:10CDD80000ED00E0DC100200131102002A1102002D
:10CDE8004611020060110200831102002DE9F84388
:10CDF800E84600AF88B006460D466A464FF003097C
:10CE08004C4B4D4C53614FF4C25194614B4842F81E
:10CE1800109F0EF0CFFC4A4BC5469B6AD9040CD52F
:10CE280088B06A46474B4FF4C251C2E905344348BB
:10CE380042F8109F0EF0BEFCC546414B9B6A1A058E
:10CE48000ED5E84688B06A463F4B4FF4C251C2E956
:10CE580005340323394842F8103F0EF0ABFCC546B1
:10CE6800DFF8DC90D9F828309B052AD5E84688B049
:10CE78006A46364B3148C2E9053403234FF4C251A0
:10CE880042F8103F0EF096FCD9F83830D9F828202F
:10CE9800C546100415D588B06A46D36104232C49C9
:10CEA8002648C2E905144FF4015142F8103F0EF02C
:10CEB80081FCC5462EB1D9F8283023F40043C9F8BF
:10CEC80028301F4B9B6A59050ED56E4688B06A46B6
:10CED800204B4FF4C251C2E905340323174842F8E6
:10CEE800103F0EF067FCB546154B9A6AD20518D567
:10CEF8006E4688B06A46184BC2E9053403234FF4DE
:10CF0800C2510E4842F8103F0EF054FCB5460020BE
:10CF18000B4A936A43F47F4393622870BD46BDE889
:10CF2800F8839B6A9B04F2D56E4688B06A460B4B21
:10CF3800E2E700BFB6110200C314020004FD0100BD
:10CF480000ED00E0D011020013110200E51102000B
:10CF5800021202001B1202003A12020083110200A0
:10CF6800F8B56D4600AF88B06A4603264D4B4E4C67
:10CF7800536194614FF4C2514C4842F8106F0EF05F
:10CF880019FC4B4BAD469B6A9B010CD588B06A4691
:10CF9800484B4FF4C251C2E90534444842F8106F77
:10CFA8000EF008FCAD46424B9B6ADD010ED56D467E
:10CFB80088B06A46404B4FF4C251C2E90534032396
:10CFC8003A4842F8103F0EF0F5FBAD46384B9D6AE3
:10CFD80015F480150FD06D4688B06A46374B4FF46C
:10CFE800C251C2E905340323304842F8103F0EF01D
:10CFF800E1FBAD4602252E4B9B6A18030ED56E4603
:10D0080088B06A462E4B4FF4C251C2E90534032357
:10D01800264842F8103F0EF0CDFBB546244B9B6ADC
:10D0280059030ED56E4688B06A46264B4FF4C25156
:10D03800C2E9053403231D4842F8103F0EF0BAFB3D
:10D04800B5461B4B9B6A9A030ED56E4688B06A4656
:10D058001D4B4FF4C251C2E905340323134842F86B
:10D06800103F0EF0A7FBB546114B9B6ADB030ED5AC
:10D078006E4688B06A46154B4FF4C251C2E9053472
:10D0880003230A4842F8103F0EF094FBB546084ABD
:10D098002846936A6FEA03436FEA13439362BD46D7
:10D0A800F8BD00BF56120200B714020004FD0100CB
:10D0B80000ED00E07212020089120200A7120200BD
:10D0C800D5120200F7120200201302003E130200DC
:10D0D8002DE9F0478AB0894B0546D3F804908A4673
:10D0E8001446002600AFC9F3080886F31188BFF379
:10D0F8006F8F02F07F43B3F17F4F2AD1D30728D433
:10D10800500603D4110714D4012614E06E4688B0E3
:10D118006A467B4B4FF4C25153617A4B7A4893610C
:10D12800032342F8103F0EF045FB14F00404B54603
:10D1380000D0554600260023FB71A8F10303092BF4
:10D1480000F2BC80DFE803F007A3A69FBABABABA18
:10D15800BAA93546EFE7E84688B06A464FF0030AB1
:10D168006A4BDFF8AC915361C2F818904FF4C25182
:10D1780042F810AF64480EF01DFB00235F4CFB71B2
:10D18800E36AC5469A070ED588B06A46614BC2E97C
:10D1980005394FF4C2515C4842F810AF0EF00AFB53
:10D1A800C54600243EE0E36A002B03DA88B06A46ED
:10D1B800594BECE7E36A5B00F3D588B06A46574BF6
:10D1C8004FF4C251C2E905394F4842F810AF0EF08A
:10D1D800F1FA6369AA6943F48073C5466361BFF3D2
:10D1E8004F8FBFF36F8F636932F8022C23F480737B
:10D1F8006361BFF34F8FBFF36F8F4DF602739A428F
:10D208002CD188B02B686A46D361042344493E4830
:10D21800C2E905194FF4015142F8103F0EF0CAFA5D
:10D22800C5462C68FB79ABB92022294607F10800CE
:10D238000EF04BFB7B6A002E5AD0C3F3080222B9CA
:10D248006FEA53236FEA43237B62204607F1080104
:10D25800FFF782FB2837BD46BDE8F087A36ADBB23B
:10D2680023B10120F91DFFF707FD0EE0A36A13F4AF
:10D278007F4F04D00120F91DFFF7B8FD05E0A36A30
:10D28800B3F5803F8DD3FFF76BFE0446CAE7002055
:10D29800F91DE8E70020F91DEEE76C4688B06A46FC
:10D2A800204B4FF4C25153611F4B9361032342F843
:10D2B800103F15480EF07EFAA54672E71B4A6C46E9
:10D2C80019F4F87F8AB01A4B18BF13466A461949F1
:10D2D80051611949C2E90613A8F11003136240F21B
:10D2E80001339384154B4FF4315142F8103FE0E776
:10D2F80023F4FF7323F00103A6E700BF00ED00E06D
:10D308009B130200E914020004FD0100C21302008D
:10D31800DE140200DD1302000214020014140200DD
:10D328003714020057140200A914020082130200E5
:10D338006D1302007F14020096140200050000011C
:10D34800044B5A6942F010025A615A6942F48062E9
:10D358005A61704700ED00E0EFF30880EFF30981B0
:10D3680001B57246FFF7B4FE01BD00BF00232021BE
:10D378000348C2180133452B82F80013F9D17047CE
:10D3880000E100E0002080F31488BFF36F8F0020D5
:10D3980080F30A8880F30B88FDF756FE00200E49BB
:10D3A8000860BFF34F8F0D4880F3088800F03EF8FF
:10D3B800202080F311880A484FF40061401880F358
:10D3C8000988EFF314800221084380F31488BFF31F
:10D3D8006F8FFFF779FB000094ED00E068CF002025
:10D3E80028C20020BFF34F8F0549064BCA6802F4D4
:10D3F800E0621343CB60BFF34F8F00BFFDE700BF70
:10D4080000ED00E00400FA05002318460649D1F8AB
:10D418009020C2F30722934200DB7047C1F898308E
:10D42800C1F8A0000133F6E700ED00E010B572B6D0
:10D43800002484F31388FFF7E7FF23464FF0FF30FB
:10D448000C4A03F120010133102B42F82100F8D1D6
:10D4580000234FF0FF30074A03F160010133102B1E
:10D4680042F82100F8D162B6BFF34F8FBFF36F8F38
:10D4780010BD00BF00E100E0084B9B6883420BD160
:10D48800EFF3058343B1064B5A6842F080525A6065
:10D498005A6A22F400425A620CF00CB92C9F002000
:10D4A80000ED00E01FB5094C094A2346012109484F
:10D4B80000F034F900230393074B0121E41A01A873
:10D4C8000193029400F034F904B010BD0000072065
:10D4D800008000207C010200B888002010B50C7A7A
:10D4E8000B6804F01F0223F01F031A43CB6864097A
:10D4F80023F01F03054943EA440343F00103C1F83D
:10D508009800C1F89C20C1F8A03010BD00ED00E0E3
:10D5180080B500AF88B06A46084B5361084BC2E932
:10D528000630042342F8103F00234FF40151054808
:10D53800FEF712F86FF01500BD4680BDF514020025
:10D548006D150200F4FC01002DE9F04F1446064663
:10D558004FF0000987B0614D00AF79607B6899454D
:10D5680039DAD6F80480B8F1000F58D0B8F11F0F97
:10D578001DD918F01F0F1AD1D6F800B01BF01F0FD5
:10D5880015D158460EF01BF9824608EB0B000138FE
:10D598000EF015F9824523D06FF0150A6C4688B055
:10D5A8006A464F4951614F49C2E9061A07E06C467D
:10D5B80088B06A464C4B53614A4BC2E9063904238A
:10D5C80042F8103F00234FF401514848FDF7C4FFCB
:10D5D800A5466FF0150420461C37BD46BDE8F08F00
:10D5E8001AF1160FDAD05445D8DDC5F898A0D5F849
:10D5F8009C00C5F898A0D5F8A02020F01F0042F0A4
:10D608001F08D6E900211144904201F1FF3B1ED1C9
:10D61800D84508D131465FFA8AF00EF0D9F809F1F9
:10D6280001090C369AE7C5F898A0D5F89C3021F086
:10D638001F0103F01F030B433146C5F89C30E0B2CD
:10D648000EF0C6F810F1160FC3D0441CE7E7013AF4
:10D65800D845E0B222F01F02C5F898A008D1D5F845
:10D66800A030314603F01F031343C5F8A030E7E7A5
:10D67800D5F8A01001F01F010A43C5F8A0203146D3
:10D688000EF0A6F810F1160FA3D0C5F898A0D5F89B
:10D698009C203B7C08F1FF3862F304033B74D5F807
:10D6A800A0303A7C5B0863F347123A74D6E900323B
:10D6B8001344BB6023F01F03441C4344A3EB0B0338
:10D6C800E0B223F01F0307287B6102D9FFF720FF90
:10D6D800B8E707F10801FFF701FFB6E700ED00E042
:10D6E80046150200861502001F150200F4FC010011
:10D6F8000522044BC3F89420BFF34F8FBFF36F8FFD
:10D70800704700BF00ED00E0BFF35F8F0022024BBF
:10D71800C3F89420704700BF00ED00E010B5034C3B
:10D728002278FFF711FF207010BD00BF919F0020E5
:10D738002DE9F74F294D8A4606464FF00008AB46BB
:10D74800274FD0451BDAD6F80490B9F1000F3FD027
:10D758003168084601910EF032F80199044609EB48
:10D76800010001380EF02BF884424FF014021D4BD3
:10D7780008D002FB08F36FF015024BF8032003B042
:10D78800BDE8F08F14F1160F2C60F8D01978A1427B
:10D79800F5DD02FB08B0C7F89840C7F89840D7F8FD
:10D7A8009C4000F10801007B64F304000871D7F87D
:10D7B800A0000C79400860F347140C71D7F89C104E
:10D7C80021F01F016960D7F8A01021F01F0129611D
:10D7D80008F1010814350C36B3E700BF1C9B002084
:10D7E80000ED00E0919F002038B50E4D2C68082C04
:10D7F80015D80020FFF788FF0B4B0C4AC3F8C02050
:10D80800844205D10A4B00201C70FFF771FF38BD18
:10D81800696801EB0011FFF761FE0130F0E74FF096
:10D82800FF30F4E78801020000ED00E0AAFF4400A1
:10D83800919F0020014B1860704700BF8C83002027
:10D848000239012902D8034B1B6818474FF0FF30F3
:10D85800704700BF8C8300200FB41FB5002106ABB2
:10D8680053F8042B0548009102210393FCF7AEFC02
:10D8780005B05DF804EB04B0704700BF01B90100C2
:10D888000020024BC3F81406704700BF0050004048
:10D898000E4B402928BF402170B51D460C4C461838
:10D8A800B04203F1020304D1002305F81130074800
:10D8B80070BD02781209A25C03F8022C10F8012B43
:10D8C80002F00F02A25C03F8012CE9E7B09F0020E8
:10D8D800F115020030B503788BB0044607AD032B71
:10D8E80021D8DFE803F0021A1C1E124928460DF061
:10D8F8008FFF059563781E210493A3780E4A03933E
:10D90800E3780E4802932379019363790093A3790E
:10D918000CF0FEFA09480BB030BD0949E6E70949A1
:10D92800E4E70949E2E70A212846084A0CF0F0FA38
:10D93800DFE700BF540A0200760A0200929F002027
:10D948005B0A0200620A02006C0A0200E13202006D
:10D9580030B50024094D0A4B85B02846029303943C
:10D9680011F063FB02AB284600934FF4A3620A232D
:10D9780004490BF0DDFA204605B030BD789200204E
:10D988000916020078B30020014601480BF046BB97
:10D9980078920020034630B41A780846012A13D03A
:10D9A800022A26D072B9154A02F1100452F8045B13
:10D9B800A24241F8045BF9D112780A705B8843737C
:10D9C8001B0A837330BC70470C4A02F1100452F8EA
:10D9D800045BA24241F8045BF9D112780A705B68D3
:10D9E800C3F3072243731B0CC3731B0A82730374AC
:10D9F800E8E7112230BC19460DF067BF1216020085
:10DA0800012838B505460CBF064807480FF0F2FF55
:10DA1800044620B10121083010F00BF82575204686
:10DA280038BD00BF088800208487002010B50B4649
:10DA38000A490246D1F8380120B9BDE81040012052
:10DA4800FFF7DEBF10F050F80121002304460175EE
:10DA5800838108300FF0EDFF204610BD00800020C4
:10DA680070B504460F2C0D461046194605D80D2CE6
:10DA78000DD9BDE87040FFF7D9BF132C07D10C486A
:10DA88000FF0B8FF044638B90024204670BD02469E
:10DA98000B4645B10748F3E7012108300FF0C9FFED
:10DAA80001232375F1E70120BDE87040FFF7A8BF07
:10DAB8008C880020DC87002070B506468EB00A4DA1
:10DAC80001AC0FCD0FC40FCD0FC40FCD0FC42B6801
