:1080000088D10020E9E000003DDB0100BDE0000078
:10801000BDE00000BDE00000BDE00000BDE00000EC
:10802000000000000000000000000000EDD800008B
:10803000BDE00000000000008DD80000BDE00000A1
:1080400075D9000075D9000075D9000075D90000F8
:1080500075D9000075D9000075D9000075D90000E8
:1080600075D9000075D9000075D9000075D90000D8
:1080700075D9000075D9000075D9000075D90000C8
:1080800075D9000075D9000075D9000075D90000B8
:1080900075D9000075D9000075D9000075D90000A8
:1080A00075D9000075D9000075D9000075D9000098
:1080B00075D9000075D9000075D9000075D9000088
:1080C00075D9000075D9000075D9000075D9000078
:1080D00075D9000075D9000075D9000075D9000068
:1080E00075D9000075D9000075D9000075D9000058
:1080F00075D9000075D9000075D9000075D9000048
:1081000075D9000075D9000075D9000075D9000037
:1081100075D9000075D9000075D9000075D9000027
:1081200075D9000075D9000075D9000075D9000017
:1081300075D9000075D9000075D9000075D9000007
:1081400075D9000075D9000075D9000075D90000F7
:0481500075D90000DD
:04815400FFFFFFFF2B
:1081580081F0004102E000BF83F0004330B54FEAF0
:1081680041044FEA430594EA050F08BF90EA020F5D
:108178001FBF54EA000C55EA020C7FEA645C7FEAF0
:10818800655C00F0E2804FEA5454D4EB5555B8BF13
:108198006D420CDD2C4480EA020281EA030382EA84
:1081A800000083EA010180EA020281EA0303362D16
:1081B80088BF30BD11F0004F4FEA01314FF4801CE9
:1081C8004CEA113102D0404261EB410113F0004FFB
:1081D8004FEA03334CEA133302D0524263EB4303B2
:1081E80094EA050F00F0A780A4F10104D5F1200E50
:1081F8000DDB02FA0EFC22FA05F2801841F10001AB
:1082080003FA0EF2801843FA05F359410EE0A5F17E
:1082180020050EF1200E012A03FA0EFC28BF4CF0AF
:10822800020C43FA05F3C01851EBE37101F0004565
:1082380007D54FF0000EDCF1000C7EEB00006EEB72
:108248000101B1F5801F1BD3B1F5001F0CD34908FC
:108258005FEA30004FEA3C0C04F101044FEA445253
:1082680012F5800F80F09A80BCF1004F08BF5FEADA
:10827800500C50F1000041EB045141EA050130BDBA
:108288005FEA4C0C404141EB0101013C28BFB1F5CC
:10829800801FE9D291F0000F04BF01460020B1FA17
:1082A80081F308BF2033A3F10B03B3F120020CDAEA
:1082B8000C3208DD02F1140CC2F10C0201FA0CF0C8
:1082C80021FA02F10CE002F11402D8BFC2F1200C2D
:1082D80001FA02F120FA0CFCDCBF41EA0C019040E3
:1082E800E41AA2BF01EB0451294330BD6FEA04042C
:1082F8001F3C1CDA0C340EDC04F11404C4F1200217
:1083080020FA04F001FA02F340EA030021FA04F328
:1083180045EA030130BDC4F10C04C4F1200220FA7F
:1083280002F001FA04F340EA0300294630BD21FABD
:1083380004F0294630BD94F0000F83F4801306BF83
:1083480081F480110134013D4EE77FEA645C18BF77
:108358007FEA655C29D094EA050F08BF90EA020F0E
:1083680005D054EA000C04BF1946104630BD91EA06
:10837800030F1EBF0021002030BD5FEA545C05D109
:108388004000494128BF41F0004130BD14F5800448
:108398003CBF01F5801130BD01F0004545F0FE41BC
:1083A80041F470014FF0000030BD7FEA645C1ABFF1
:1083B800194610467FEA655C1CBF0B46024650EA28
:1083C800013406BF52EA033591EA030F41F4002154
:1083D80030BD00BF90F0000F04BF0021704730B5DA
:1083E8004FF4806404F132044FF000054FF00001AF
:1083F80050E700BF90F0000F04BF0021704730B570
:108408004FF4806404F1320410F0004548BF404244
:108418004FF000013EE700BF42004FEAE2014FEA99
:1084280031014FEA02701FBF12F07F4393F07F4F74
:1084380081F06051704732F07F4208BF704793F077
:108448007F4F04BF41F40021704730B54FF460748A
:1084580001F0004521F000411CE700BF50EA01028D
:1084680008BF704730B54FF000050AE050EA010236
:1084780008BF704730B511F0004502D5404261EBA6
:1084880041014FF4806404F132045FEA915C3FF4E7
:10849800D8AE4FF003025FEADC0C18BF03325FEA84
:1084A800DC0C18BF033202EBDC02C2F1200300FA35
:1084B80003FC20FA02F001FA03FE40EA0E0021FA5A
:1084C80002F11444BDE600BF70B54FF0FF0C4CF448
:1084D800E06C1CEA11541DBF1CEA135594EA0C0FFA
:1084E80095EA0C0F00F0DEF82C4481EA030621EA35
:1084F8004C5123EA4C5350EA013518BF52EA033570
:1085080041F4801143F4801338D0A0FB02CE4FF021
:108518000005E1FB02E506F00042E0FB03E54FF051
:108528000006E1FB03569CF0000F18BF4EF0010E49
:10853800A4F1FF04B6F5007F64F5407404D25FEA45
:108548004E0E6D4146EB060642EAC62141EA5551F8
:108558004FEAC52040EA5E504FEACE2EB4F1FD0C3A
:1085680088BFBCF5E06F1ED8BEF1004F08BF5FEAB8
:10857800500E50F1000041EB045170BD06F000466A
:1085880046EA010140EA020081EA0301B4EB5C0417
:10859800C2BFD4EB0C0541EA045170BD41F480110F
:1085A8004FF0000E013C00F3AB8014F1360FDEBF34
:1085B800002001F0004170BDC4F10004203C35DA10
:1085C8000C341BDC04F11404C4F1200500FA05F393
:1085D80020FA04F001FA05F240EA020001F0004234
:1085E80021F0004110EBD37021FA04F642EB0601AA
:1085F8005EEA430E08BF20EAD37070BDC4F10C04D4
:10860800C4F1200500FA04F320FA05F001FA04F297
:1086180040EA020001F0004110EBD37041F1000183
:108628005EEA430E08BF20EAD37070BDC4F120058E
:1086380000FA05F24EEA020E20FA04F301FA05F2F6
:1086480043EA020321FA04F001F0004121FA04F29E
:1086580020EA020000EBD3705EEA430E08BF20EA6E
:10866800D37070BD94F0000F0FD101F000464000A8
:1086780041EB010111F4801F08BF013CF7D041EA2A
:10868800060195F0000F18BF704703F0004652002E
:1086980043EB030313F4801F08BF013DF7D043EAFF
:1086A8000603704794EA0C0F0CEA135518BF95EAB5
:1086B8000C0F0CD050EA410618BF52EA4306D1D13C
:1086C80081EA030101F000414FF0000070BD50EA5B
:1086D800410606BF1046194652EA430619D094EAE5
:1086E8000C0F02D150EA013613D195EA0C0F05D1CF
:1086F80052EA03361CBF104619460AD181EA030123
:1087080001F0004141F0FE4141F470014FF00000DA
:1087180070BD41F0FE4141F4780170BD70B54FF075
:10872800FF0C4CF4E06C1CEA11541DBF1CEA1355F5
:1087380094EA0C0F95EA0C0F00F0A7F8A4EB0504D7
:1087480081EA030E52EA03354FEA013100F08880CE
:108758004FEA03334FF0805545EA131343EA126397
:108768004FEA022245EA111545EA10654FEA00264C
:108778000EF000419D4208BF964244F1FD0404F505
:10878800407402D25B084FEA3202B61A65EB030561
:108798005B084FEA32024FF480104FF4002CB6EB1E
:1087A800020E75EB030E22BFB61A754640EA0C009E
:1087B8005B084FEA3202B6EB020E75EB030E22BFDE
:1087C800B61A754640EA5C005B084FEA3202B6EB1F
:1087D800020E75EB030E22BFB61A754640EA9C00DE
:1087E8005B084FEA3202B6EB020E75EB030E22BFAE
:1087F800B61A754640EADC0055EA060E18D04FEA6C
:10880800051545EA16754FEA06164FEAC30343EA0B
:1088180052734FEAC2025FEA1C1CC0D111F4801FD8
:108828000BD141EA00014FF000004FF0004CB6E7D1
:1088380011F4801F04BF01430020B4F1FD0C88BF70
:10884800BCF5E06F3FF6AFAEB5EB030C04BFB6EB7B
:10885800020C5FEA500C50F1000041EB045170BD6E
:108868000EF0004E4EEA113114EB5C04C2BFD4EB9B
:108878000C0541EA045170BD41F480114FF0000E1F
:10888800013C90E645EA060E8DE60CEA135594EA9B
:108898000C0F08BF95EA0C0F3FF43BAF94EA0C0F9E
:1088A8000AD150EA01347FF434AF95EA0C0F7FF413
:1088B80025AF104619462CE795EA0C0F06D152EA67
:1088C80003353FF4FDAE1046194622E750EA41064B
:1088D80018BF52EA43067FF4C5AE50EA41047FF45C
:1088E8000DAF52EA43057FF4EBAE12E780F000408B
:1088F80002E000BF81F0004142001FBF5FEA410370
:1089080092EA030F7FEA226C7FEA236C6AD04FEA6F
:108918001262D2EB1363C1BFD218414048404140B4
:10892800B8BF5B42192B88BF704710F0004F40F466
:10893800000020F07F4018BF404211F0004F41F482
:10894800000121F07F4118BF494292EA030F3FD04E
:10895800A2F1010241FA03FC10EB0C00C3F1200361
:1089680001FA03F100F0004302D5494260EB4000F0
:10897800B0F5000F13D3B0F1807F06D340084FEA5B
:10898800310102F10102FE2A51D2B1F1004F40EB50
:10899800C25008BF20F0010040EA030070474900B8
:1089A80040EB0000013A28BFB0F5000FEDD2B0FA55
:1089B80080FCACF1080CB2EB0C0200FA0CF0AABF78
:1089C80000EBC25052421843BCBFD0401843704716
:1089D80092F0000F81F4000106BF80F4000001321C
:1089E800013BB5E74FEA41037FEA226C18BF7FEAF3
:1089F800236C21D092EA030F04D092F0000F08BF35
:108A08000846704790EA010F1CBF0020704712F01B
:108A18007F4F04D1400028BF40F00040704712F15A
:108A280000723CBF00F50000704700F0004343F0BF
:108A3800FE4040F4000070477FEA226216BF0846F5
:108A48007FEA23630146420206BF5FEA412390EAB8
:108A5800010F40F4800070474FF0000304E000BFAE
:108A680010F0004348BF40425FEA000C08BF70475F
:108A780043F0964301464FF000001CE050EA010223
:108A880008BF70474FF000030AE000BF50EA010238
:108A980008BF704711F0004302D5404261EB410125
:108AA8005FEA010C02BF84460146002043F0B6434A
:108AB80008BFA3F18053A3F50003BCFA8CF2083A6F
:108AC800A3EBC25310DB01FA02FC634400FA02FC78
:108AD800C2F12002BCF1004F20FA02F243EB02007F
:108AE80008BF20F00100704702F1200201FA02FCE1
:108AF800C2F1200250EA4C0021FA02F243EB0200D4
:108B080008BF20EADC7070474FF0FF0C1CEAD05217
:108B18001EBF1CEAD15392EA0C0F93EA0C0F6FD0D8
:108B28001A4480EA010C400218BF5FEA41211ED0B6
:108B38004FF0006343EA501043EA5111A0FB0131A2
:108B48000CF00040B1F5000F3EBF490041EAD37177
:108B58005B0040EA010062F17F02FD2A1DD8B3F1F3
:108B6800004F40EBC25008BF20F00100704790F062
:108B7800000F0CF0004C08BF49024CEA502040EAB4
:108B880051207F3AC2BFD2F1FF0340EAC25070477A
:108B980040F400004FF00003013A5DDC12F1190FB8
:108BA800DCBF00F000407047C2F10002410021FA2A
:108BB80002F1C2F1200200FA02FC5FEA310040F142
:108BC800000053EA4C0308BF20EADC70704792F0BB
:108BD800000F00F0004C02BF400010F4000F013AF3
:108BE800F9D040EA0C0093F0000F01F0004C02BFEE
:108BF800490011F4000F013BF9D041EA0C018FE75D
:108C08000CEAD15392EA0C0F18BF93EA0C0F0AD062
:108C180030F0004C18BF31F0004CD8D180EA010088
:108C280000F00040704790F0000F17BF90F0004F21
:108C3800084691F0000F91F0004F14D092EA0C0F03
:108C480001D142020FD193EA0C0F03D14B0218BF96
:108C5800084608D180EA010000F0004040F0FE40DC
:108C680040F40000704740F0FE4040F44000704778
:108C78004FF0FF0C1CEAD0521EBF1CEAD15392EAF7
:108C88000C0F93EA0C0F69D0A2EB030280EA010CE7
:108C980049024FEA402037D04FF0805343EA111180
:108CA80043EA10130CF000408B4238BF5B0042F1DE
:108CB8007D024FF4000C8B4224BF5B1A40EA0C0083
:108CC800B3EB510F24BFA3EB510340EA5C00B3EBB5
:108CD800910F24BFA3EB910340EA9C00B3EBD10FA3
:108CE80024BFA3EBD10340EADC001B0118BF5FEAF5
:108CF8001C1CE0D1FD2A3FF650AF8B4240EBC2501E
:108D080008BF20F0010070470CF0004C4CEA5020DE
:108D18007F32C2BFD2F1FF0340EAC250704740F42D
:108D280000004FF00003013A37E792F0000F00F01F
:108D3800004C02BF400010F4000F013AF9D040EA9D
:108D48000C0093F0000F01F0004C02BF490011F431
:108D5800000F013BF9D041EA0C0195E70CEAD15329
:108D680092EA0C0F08D142027FF47DAF93EA0C0F10
:108D78007FF470AF084676E793EA0C0F04D14B02F4
:108D88003FF44CAF08466EE730F0004C18BF31F0A6
:108D9800004CCAD130F000427FF45CAF31F00043A0
:108DA8007FF43CAF5FE700BF4FF0FF3C06E000BF39
:108DB8004FF0010C02E000BF4FF0010C4DF804CD5C
:108DC8004FEA40024FEA41037FEA226C18BF7FEA6C
:108DD800236C11D001B052EA530C18BF90EA010F6E
:108DE80058BFB2EB030088BFC81738BF6FEAE170FD
:108DF80018BF40F0010070477FEA226C02D15FEA99
:108E0800402C05D17FEA236CE4D15FEA412CE1D004
:108E18005DF8040B704700BF844608466146FFE7CB
:108E28000FB5FFF7C9FF002848BF10F1000F0FBDAD
:108E38004DF808EDFFF7F4FF0CBF012000205DF8A6
:108E480008FB00BF4DF808EDFFF7EAFF34BF01202B
:108E580000205DF808FB00BF4DF808EDFFF7E0FFC4
:108E680094BF012000205DF808FB00BF4DF808ED15
:108E7800FFF7D2FF94BF012000205DF808FB00BF78
:108E88004DF808EDFFF7C8FF34BF012000205DF85A
:108E980008FB00BF42000ED2B2F1FE4F0BD34FF0D9
:108EA8009E03B3EB126209D44FEA002343F0004358
:108EB80023FA02F070474FF00000704712F1610F7B
:108EC80001D1420202D14FF0FF3070474FF000004D
:108ED800704700BF53B94AB9002908BF00281CBF12
:108EE8004FF0FF314FF0FF3000F00CB8ADF1080C37
:108EF8006DE904CE00F0CEF8DDF804E0DDE90223E8
:108F080004B07047704700BF4FF0FF3C06E000BF59
:108F18004FF0010C02E000BF4FF0010C4DF804CDFA
:108F28004FEA410C7FEA6C5C4FEA430C18BF7FEABA
:108F38006C5C1BD001B050EA410C0CBF52EA430CE8
:108F480091EA030F02BF90EA020F0020704710F168
:108F5800000F91EA030F58BF994208BF90422CBFF7
:108F6800D8176FEAE37040F0010070474FEA410CF0
:108F78007FEA6C5C02D150EA013C07D14FEA430C0E
:108F88007FEA6C5CD6D152EA033CD3D05DF8040B7F
:108F9800704700BF8446104662468C4619466346B1
:108FA80000E000BF01B5FFF7B7FF002848BF10F188
:108FB800000F01BD4DF808EDFFF7F4FF0CBF0120CD
:108FC80000205DF808FB00BF4DF808EDFFF7EAFF49
:108FD80034BF012000205DF808FB00BF4DF808ED04
:108FE800FFF7E0FF94BF012000205DF808FB00BFF9
:108FF8004DF808EDFFF7CEFF94BF012000205DF883
:1090080008FB00BF4DF808EDFFF7C4FF34BF01208F
:1090180000205DF808FB00BF4FEA410C7FEA6C5C5A
:1090280002D150EA013C0AD14FEA430C7FEA6C5C5A
:1090380002D152EA033C02D14FF0000070474FF0D2
:10904800010070474FEA410212F5001215D211D5FE
:109058006FF47873B3EB625212D94FEAC12343F02D
:10906800004343EA505311F0004F23FA02F018BFAF
:10907800404270474FF00000704750EA013005D178
:1090880011F0004008BF6FF0004070474FF000003B
:10909800704700BF2DE9F04786468C460846089E73
:1090A800154674461946002B40F0C1808542B2FA35
:1090B80082F245D94AB1C2F1200300FA02FC954078
:1090C80094402EFA03F343EA0C0C4FEA154EA8B26B
:1090D800230CBCFBFEF80EFB18CC08FB00F943EA96
:1090E8000C43994528D9EB1808F1FF3704D2994564
:1090F80002D9A8F102072B44A3EB0903A4B2B3FBDE
:10910800FEFC0EFB1C330CFB00F044EA0344A042B7
:1091180014D92C190CF1FF3304D2A04202D9ACF1B6
:1091280002032C44241A43EA07401EB1D44000230A
:1091380034607360BDE8F0874746DDE76346F1E7D2
:1091480092BB431B01214FEA154EAFB2200CB3FB73
:10915800FEFC0EFB1C330CFB07F840EA0343984562
:1091680061D9EB180CF1FF3004D2984502D9ACF163
:1091780002002B44A3EB0803A4B2B3FBFEFC0EFBD6
:109188001C330CFB07F744EA0344A7424DD92C19BA
:109198000CF1FF3304D2A74202D9ACF102032C44EC
:1091A800E41B43EA0040C0E7C2F120039540944025
:1091B80020FA03F12EFA03F34FEA154E9040AFB2AE
:1091C8000343B1FBFEFC0EFB1C10190C0CFB07F84B
:1091D80041EA0041884522D969180CF1FF3004D2D0
:1091E800884502D9ACF102002944A1EB08019BB2E1
:1091F800B1FBFEFC0EFB1C110CFB07F743EA014315
:109208009F420ED9EB180CF1FF3104D29F4202D9CC
:10921800ACF102012B44DB1B41EA004193E76046B5
:10922800E3E76146F7E76046A4E76346B8E78342A9
:1092380006D916B9002108467CE7C6E900E0F9E737
:10924800B3FA83F78FB9834201D3724508D8BEEBCE
:10925800020460EB030301209C461EB9002169E764
:109268003846FAE7C6E9004CF8E7C7F1200CBB40DE
:109278000EFA07F522FA0CF42EFA0CF1BA401C4348
:1092880020FA0CF3B8404FEA144901431FFA84FE50
:10929800B3FBF9F809FB18300B0C08FB0EFA43EA8C
:1092A80000439A4540D9E31808F1FF3004D29A45A3
:1092B80002D9A8F102002344A3EB0A0389B2B3FB45
:1092C800F9F809FB183308FB0EFE41EA03418E4505
:1092D8002CD9611808F1FF3304D28E4502D9A8F1C0
:1092E8000203214443EA0040A1EB0E01A0FB0298CF
:1092F8004145CE46434602D306D14D4504D20138F6
:10930800B9EB020E68EB0403002EA7D0B5EB0E02F2
:1093180061EB030101FA0CFC22FA07F3F9404CEA6D
:109328000303C6E9003199E74046C5E74346D9E754
:1093380010F8012B11F8013B012A28BF9A42F7D0F7
:10934800D01A7047034613F8012B002AFBD1181ACC
:1093580001387047000000002DE9F04182B06D4DE2
:1093680000AFD5F85C31996811F001011AD140F6C7
:1093780003403A1D05F036FF0446002840F0C4803B
:10938800786883681B785BB905F1CC03D3E8AF2F05
:1093980002F00902D3E8EF1FC3E8E42F002CF9D14B
:1093A8000CF0C8FF002141F203003A1D05F01AFF36
:1093B8000446002840F0A8807B68574E9A68D2F887
:1093C8000100D2F8051003C618460CF0B3FF214679
:1093D80041F201003A1D05F005FF0446002840F05F
:1093E8009380786883685A7885F868205A88A5F841
:1093F8006A201A7985F86920B3F80720A5F86C2047
:10940800B3F80530A5F86E300CF094FF214641F210
:1094180002003A1D05F0E6FE0446002874D1D7F88C
:1094280004C0DCF80820531C4132344618685968D7
:10943800083303C493422646F7D160460CF07AFFFE
:1094480007F02EFE044600285ED195F88230990672
:1094580026D46C4688B06A46304B4FF4C4515361E9
:109468002F4B30489361032342F8103F14F096FCC9
:10947800A54695F874305A065AD46C4688B06A46A0
:10948800294B4FF4C2515361284B2648936103235B
:1094980042F8103F14F082FCA5466FF0120433E046
:1094A800072140F6334005F063FE0646002800F029
:1094B80045810721083016F0E5FC45230370062393
:1094C800C0F802408471447004712246C37031466A
:1094D80040F6334005F086FE0446A8B9012140F65F
:1094E800314005F045FE0646002800F0278101219D
:1094F800083016F0D6FC2246314640F6314005F0D9
:1095080071FE04460028B4D020460837BD46BDE8A1
:10951800F08100BF00800020708000201C490200FC
:109528008E4E0200F82702004E490200864E0200C5
:10953800002142F203003A1D05F054FE04460028BB
:10954800E2D17B68AC4E9A68D2F80100D2F80510D7
:1095580003C618460CF0EEFE214642F202003A1D00
:1095680005F040FE04460028CED17C68A368B3F815
:10957800012091B2A5F8FC2029B1DA78114606F14C
:10958800280017F03AFE20460CF0D4FE95F87460D7
:1095980016F0200618D1022140F66D4005F0E8FDCE
:1095A8000446002800F0CA800221083016F06AFC40
:1095B8000123214603704670324640F66D4005F09F
:1095C80011FE044600289FD195F894301B0712D548
:1095D800002142F21C003A1D05F004FE0446002852
:1095E80092D178688368D3F80120D3F80530C5E9AB
:1095F80036230CF09FFE95F8D0309E0622D53846CB
:10960800B91C05F06FFE044600287FF47DAF0421E5
:1096180042F2240005F0ACFD0646002800F08E80DA
:109628000421083016F02EFC3B88224603807B88F4
:109638003146438042F2240005F0D4FD0446002858
:109648007FF462AF95F8D0305C0610D5002142F265
:109658002A003A1D05F0C6FD044600287FF454AFE1
:10966800786883685B7885F818310CF063FE082108
:1096780042F2010005F07CFD044600285ED0082176
:10968800084416F0FFFB95F8D01040F2022311F0C1
:10969800400F08BF0323024688074CBF43F02C0045
:1096A80043F00C008B0695F8D13048BF40F04000DD
:1096B80013F0090F95F89A3018BF40F4006003F0D2
:1096C8000603CE0748BF40F01000062B08BF40F441
:1096D800C070002114F06DFB2146002242F2010007
:1096E80005F080FD044600287FF40EAF95F874302D
:1096F800B5F8FC10980624D4C9B941F205003A1D02
:1097080005F070FD044600287FF4FEAEB5F8FC3085
:109718007C684BB9A368B3F80120A5F8FC209A88A7
:109728003648114617F069FD20460CF003FE082163
:1097380040F6014005F01CFD0446B8B96FF0680416
:10974800E2E60029F3D16C4688B06A462C4B4FF408
:10975800C25153612B4B2C489361032342F8103FAD
:1097680014F01CFBA5466FF00404CDE6082108445C
:1097780016F088FB95F8D0300246D90734D44FF05C
:109788000051224814F015FB2146002240F6014002
:1097980005F028FD044600287FF4B6AE01463A1DC0
:1097A8004FF6014005F01EFD194CA8B36D4688B070
:1097B8006A46184BC2E9053403234FF4C4511248D2
:1097C80042F8103F14F0EAFAAD4607F0DDF8044617
:1097D80000287FF499AE08F093FC044600287FF433
:1097E80093AE06F07DFB8FE601A1D1E90001C9E740
:1097F8009088000200800020D08000200081002096
:10980800764902009F4E0200F827020010880002E5
:10981800614E02009D4902007B686E469D688AB0D1
:10982800B5F80130032B96BF464A474952F8231032
:109838006A46C2E9071340F2013344489384444B13
:10984800C2E905044FF4335142F8103F414814F07F
:10985800A5FAB5F80120B546022AB5F803304DD16E
:10986800032B4BD83C4A52F823106E468AB06A46FE
:10987800C2E9071340F2013338489384344BC2E9F4
:1098880005044FF4335142F8103F324814F086FA79
:10989800B5466B7995F806C0032B98BF304AB5F8E2
:1098A8000760D5F809006D468EB094BF52F82310B2
:1098B80025496A46C2E9071340F20133DFF8A4E0FC
:1098C8001386294BC2E909C6C2E905E4D06244F20D
:1098D800C04142F8103F1F4814F060FAAD4678685E
:1098E8000CF028FD00214FF602403A1D05F07AFCE5
:1098F800064628B188B06A461C4B5BE71249B4E7B4
:109908007868DFF86C808368B3F80130A8F8B9305C
:109918000CF010FD98F8B9305B077FF556AF31466B
:109928004FF603403A1D05F05DFC18B188B06A4651
:10993800104B3FE7786883685B7888F8B8300CF09C
:10994800F9FC42E7802E020010430200C5490200DC
:1099580005000001F8270200702E0200E24902000B
:10996800602E0200FE490200080000012F4A020092
:10997800008000205C4A02002DE9F04F144697B0A1
:109988001D46476A8346239ECDE904457FB91020CA
:1099980011F0C6F80246CBF8240020B9A24BEA2100
:1099A800A24812F0DFFAC0E901770760C760DBF868
:1099B8002430196859B15A680123584693404A60BF
:1099C8008B6011F0F5FDDBF8243000221A602B1EA5
:1099D800B7BF23F00043002301220593A8BF3360DB
:1099E800059F934BB8BF3260BB4319D142F20F7346
:1099F800229A1360C7F31303234300F0E085249BE6
:109A080053B98C4B21E08C4B08930833249A13608C
:109A1800089817B0BDE8F08F864B08930333F5E735
:109A2800DDE90423CDE90C23DDE90C010022002344
:109A3800FFF7C0FA804650B10123229A1360249B95
:109A480013B17E4B249A13607D4B0893E0E714AB67
:109A5800C7F30A565846019315AB0093DDE90C236A
:109A680012F02CF80390002E78D00D9BA6F2FF364A
:109A7800CDF84C80C3F3130343F07F53DDE90C01A9
:109A880043F44013194600226E4BFEF765FB60A3B2
:109A9800D3E90023FEF718FD5FA3D3E90023FEF7FF
:109AA8005DFB04460D463046FEF7A4FC5CA3D3E9F3
:109AB8000023FEF709FD02460B4620462946FEF71D
:109AC8004DFB04460D46FFF7BDFA0022074600236A
:109AD80020462946FFF778FA40B13846FEF78AFC57
:109AE80022462B46FFF766FA00B9013F162F54D8D5
:109AF800554B03EBC703DDE90C01D3E90023FFF75E
:109B080063FA00284BD0013F00231293149B9B1B40
:109B18005A1E4CBFC3F1010300230A9245BF0693A6
:109B2800002306930A93002F3BDB0A9B0F973B44C5
:109B38000A9300230B93209B092B00F28980052BA5
:109B4800C5BF043B002401242093209B023B032B28
:109B580000F28980DFE803F02D3A3859DDE9146313
:109B68001E4406F23243202BC9BFC3F14003C3F1A0
:109B780020039F4006F21243D8BF04FA03F006F10F
:109B8800FF36C4BF24FA03F347EA0300FEF722FCBA
:109B98000122A1F1F873139274E70123B5E712903B
:109BA800B4E7069BDB1B06937B420B9300230F93C2
:109BB800C1E700230E93219B002B57DC0123994614
:109BC8001A46099321920CE00123F3E700230E9330
:109BD800219BFB1803F1010909934B46012BB8BFE0
:109BE8000123DBF824000021042202F114059D4220
:109BF80040D94160584611F09BFC089000283CD1A0
:109C0800124B02464FF4D571CAE60123DFE700BFC5
:109C180061436F63A787D23FB3C8608B288AC63F6A
:109C2800FB799F501344D33FDE6D0200F56D0200AF
:109C38000000F07FDA6D0200D16D0200F8450200E5
:109C4800F74502000000F83FD0290200696E0200C3
:109C5800012400230E9420934FF0FF3300229946ED
:109C680009931223AEE701230E93F5E7219B99464A
:109C78000993B6E701315200B7E7DBF82430B9F1B0
:109C88000E0F089A1A606FD8002C6DD0002F36DDA1
:109C980007F00F02A04BF80503EBC203D3E9003429
:109CA800CDE910344FEA271417D59C4B04F00F0464
:109CB8004FF00308D3E90823DDE90C01FEF72EFD78
:109CC800CDE90401954D5CB9DDE91023DDE9040116
:109CD800FEF724FDCDE904012BE04FF00208F1E77F
:109CE800E10709D508F10108DDE91001D5E90023EC
:109CF800FEF7EAFBCDE9100164100835E3E700F050
:109D080007817C42844B854D4FF0020804F00F0216
:109D1800241103EBC203DDE90C01D3E90023FEF7AC
:109D2800D3FB0023CDE90401002C40F0E580002B93
:109D3800D0D1129BDDE90445002B00F04C810022B4
:109D4800774B20462946FFF73FF9002800F043816A
:109D5800B9F1000F00F03F81099B002B00F3E4806C
:109D6800DDE90C34CDE90434159B002B02DB0E2F02
:109D780040F342820E9A002A40F067820B9C00252D
:109D8800DDF81880B8F1000F0DD00A9B002B0ADD12
:109D98004345069AA8BF4346D21AA8EB0308069281
:109DA8000A9AD31A0A930B9B0BB30E9B002B00F055
:109DB800A682002C00F0A18229462246584611F0BE
:109DC80021FD039A01460546584611F071FC039996
:109DD8000646584611F0ECFB0B9B1B1B0B9300F03F
:109DE80091820B9A3146584611F00CFD03900121DF
:109DF800584611F047FC0F9B0446002B00F0848264
:109E08001A460146584611F0FDFC209B0446012BDA
:109E180003DC049B002B00F07C820026236904EB02
:109E28008303186918F06DF8C0F120000F960A9B9B
:109E3800184410F01F0000F09182C0F12003042B99
:109E480040F38182C0F11C00069B034480440693C2
:109E58000A9B03440A93069B002B05DD1A460399C7
:109E6800584611F029FD03900A9B002B05DD214679
:109E78001A46584611F020FD0446129B002B00F0AC
:109E880076822146039818F08BF8002880F26F82BA
:109E980000230A220399584611F0ACFB0E9B7E1E44
:109EA8000390002B00F05C82002329460A225846C2
:109EB80011F0A0FB099B0546002B03DC209B022B1D
:109EC80000F35E82B8F1000F05DD29464246584688
:109ED80011F0F2FC05460F9B002B00F0D082696858
:109EE800584611F025FB0746002840F07F820D4BAD
:109EF800024640F2EA2153E5E20706D508F10108D7
:109F0800D5E90023FEF7E0FA0123641008350BE7D2
:109F18004FF002080DE700BFD0290200A82902006F
:109F28000000F03F696E020020460022AC4B294633
:109F3800FEF7CAFA7E1E08F10108099CCDE9040162
:109F48004046FEF757FADDE90423FEF7BDFAA54BB4
:109F58000022FEF703F9A1F15073CDE91001119326
:109F6800002C3BD10022A04BDDE90401FEF7F4F8F8
:109F780002460B46CDE90423DDE91023FFF742F83A
:109F8800002840F05781DDE9102101F10043DDE9A7
:109F98000401FFF719F800283FF4E2AE0024254633
:109FA800219BDDF820A0DE434FF0000821465846EB
:109FB80011F0FEFA002D00F0A980B8F1000F05D0CD
:109FC800A84503D04146584611F0F2FA29465846AA
:109FD80011F0EEFA9AE03E464C46B1E7834B03EBAC
:109FE800C40353E90201089B1C440E9B002B4AD072
:109FF80002460B4600207E49FEF790FBDDE9102360
:10A00800FEF7AAF8DDF820A0CDE91001DDE904018A
:10A01800FFF718F80546FEF7EDF9024630350B460E
:10A02800DDE90401FEF798F80AF8015B02460B46E1
:10A03800CDE90401DDE91001FEF7E4FF002865D150
:10A0480000206C49DDE90423FEF786F802460B463A
:10A05800DDE91001FEF7D6FF002840F00D81A2458A
:10A0680000F0EA8000225E4BDDE91001FEF72CFAD1
:10A0780000225B4BCDE91001DDE90401FEF724FA6B
:10A08800CDE90401C2E7DDE91023FEF71DFAA04679
:10A09800DDF820A0CDE91001DDE90401FEF7D2FFCB
:10A0A8000546FEF7A7F9024630350B46DDE90401FF
:10A0B800FEF752F80AF8015B02460B46A245CDE9C5
:10A0C80004234FF0000223D1494BDDE91001FEF7CC
:10A0D80045F802460B46DDE90401FEF793FF002828
:10A0E80040F0CA8000204249DDE91023FEF734F829
:10A0F80002460B46DDE90401FEF766FF70B1C24671
:10A1080008F1FF381AF8013C302BF8D0374655E0F3
:10A11800334BFEF7D9F9CDE90401BDE7DDE90C348D
:10A12800CDE90434159B002BFFF628AE0E2F3FF720
:10A1380025AE2E4B03EBC703D3E90034CDE9063433
:10A14800219B002B02DAB9F1000F64D0DDF820A0C2
:10A15800DDE90445DDE9062320462946FEF7DEFA57
:10A16800FEF770FF0646FEF745F9DDE90623FEF720
:10A17800ABF90246204606F130040B462946FDF7A6
:10A18800EBFF0AF8014B089C02460B46AAEB0404B5
:10A19800A14540F08280FDF7E1FF04460D46DDE968
:10A1A8000623FEF72FFF002865D120462946DDE962
:10A1B8000623FEF7FFFE08B1F3075CD4039958465F
:10A1C80011F0F6F9002301378AF80030229B1F604E
:10A1D800249B002B3FF41CACC3F800A018E400BF7C
:10A1E8000000244000001C4000001440D029020058
:10A1F8000000E03F0000F03FA24B03EBC703D3E9A8
:10A208000034CDE90634219B002B9FDAB9F1000F09
:10A218009CDC7FF4C3AE00229B4BDDE90601FEF710
:10A2280053F9DDE90423FEF7E3FE044600287FF432
:10A23800B5AE3E462546B4E0DDE90C34CDE904343C
:10A24800159B002B01DB0E2FD6DD209A012A36DC68
:10A25800139A82B303F233430B9CDDF81880069AF5
:10A26800012158461A4406920A9A1A440A9211F091
:10A2780009FA054686E53E4653469A4613F8012DE7
:10A28800392A06D1089A9A42F7D13022089901361C
:10A298000A701A7801321A7038E700227B4BFEF7F1
:10A2A80013F90022002304460D46FEF783FE00281A
:10A2B8003FF450AF82E7149BC3F13603CCE709F1B2
:10A2C800FF340B9BA34208DBB9F1000FA3EB040496
:10A2D8000EDBDDF818804B46C1E70B9B0F9AE31A9B
:10A2E8000B94DDF8188000241A444B460F92B6E709
:10A2F800069BA3EB09080023B1E7039E71E50B9ABF
:10A30800039970E5039672E5209B012B17DC049BEB
:10A31800ABB9059BC3F313039BB9059B23F0004618
:10A32800360D360536B1069B0126013306930A9B86
:10A3380001330A930F9B002B7FF470AD0F96012019
:10A3480075E50026F6E73FF486AD1C33069A1A44F5
:10A35800984406920A9A1A440A927CE50346F4E75E
:10A36800099B002B2BDC209B022B09DC27E0B9F191
:10A37800000F1DDC209B022B1ADD3E46CDF82490F1
:10A38800099B002B7FF40CAE21460522584611F09C
:10A3980031F901460446039817F002FE00287FF7BA
:10A3A800FFADDDF820A0312301360AF8013BFBE5BB
:10A3B8000E9B3E46CDF82490002B7FF483AD089F7A
:10A3C8002146039817F0CDFC089B00F13009099A43
:10A3D80007F8019BFB1A9A4240F3CB8000230A221C
:10A3E8000399584611F006F90390E9E72A6905F13F
:10A3F8000C010C300232920017F045FB012239465D
:10A40800584611F059FA089BA846054603F1010A77
:10A41800DDE9082313440A93049B03F001030B931B
:10A428000AF1FF3321460398069317F09AFC414638
:10A43800099000F13009039817F0B2FD2A46214629
:10A448000746584611F0A4FAC268014602B35846B6
:10A4580011F0AEF8002F3ADA01220399584611F0AC
:10A468002BFA2146039017F09BFD002803DC29D125
:10A4780019F0010F26D0B9F1390F1DD132E0284665
:10A48800C1E700BFD02902000000144000002440AA
:10A498000E90039817F084FD0E990C90584611F011
:10A4A80087F80C9A5ABB209B53B90B9B43B9B9F157
:10A4B800390F17D0002F05DD099B03F1310901E0A1
:10A4C800002F2ADADDF818A00AF8019B6EE5209B18
:10A4D8003B4304D1049B03F00103002BBCD0B9F12A
:10A4E800390F36D1069F392307F8013BBA46013F99
:10A4F8001AF8013C392B5AD001333B7056E5002F2E
:10A5080006DB209B3B4306D1049B03F0010313B9F0
:10A51800002AA1DCD6E7002AE1DC0A9B57460AF8A4
:10A52800019C53452ED000230A220399584611F066
:10A5380061F8A84503904FF000034FF00A02414626
:10A5480058460BD111F056F8804605460AF1010A23
:10A5580066E7DDF818A009F10109B5E711F04AF836
:10A568002946804600230A22584611F043F805463A
:10A57800ECE7099B4FF00008002BCCBF1F460127D2
:10A58800089B1F4401220399584611F095F921466A
:10A59800039017F005FD0028A8DC02D119F0010F7F
:10A5A800A4D1BA4617F8013D302BFAD0FEE4089B37
:10A5B800BB429BD13123089A01361370F6E4249BE1
:10A5C800002B7FF420AA014BFFF73FBAD16D0200A0
:10A5D80038B5114C1546237A22FA03F3DA0709D560
:10A5E800012384F8203011F003FEA26A01460B48CB
:10A5F80010F0A6FE94F83430DD40EB070BD50123AC
:10A6080084F84C3011F0F4FD626D0146BDE8384025
:10A61800024810F095BE38BD088200203034020090
:10A62800914210B523D22C2311FB03F1435C44184B
:10A63800BBB1606816F02CFC40B911F0D9FDA26AD4
:10A6480001460F4810F07CFE802307E011F0D0FD92
:10A65800A26A01460B4810F073FE002384F82430E8
:10A6680010BD11F0C5FDA26A01460748EAE711F0DE
:10A67800BFFDBDE810400146044810F061BE00BFB0
:10A688005A34020087340200A9340200D034020090
:10A698009142F8B52FD22C2311FB03F1435C4418E7
:10A6A8004BB3D4E903326068217A1343DD02D0F852
:10A6B80008C0076906D513F4402F03D0DA0748BF4E
:10A6C80083F4402301263D6823F480128E40DB0783
:10A6D8004CBF3543B5433D60DCF80030984700284F
:10A6E8000ADA11F085FDA26A0146084810F028FE32
:10A6F800802384F82430F8BD11F07AFDA26A01465F
:10A70800034810F01DFE0023F3E700BFFD340200EC
:10A718003235020091422DE9F0410546174640D2F4
:10A728002C2311FB03F1435C4418002B41D0237EFA
:10A7380043B911F05DFDA26A0146BDE8F0411E482B
:10A7480010F0FEBD11F054FDA26A01461B4810F03E
:10A75800F7FD6068217AE66933028268D0F810C094
:10A7680008D50123DCF800C08B4013EA0C0F18BF92
:10A7780086F0C06606F0C063D2F8188006F0B072A2
:10A78800C0473946284611F049FD0D4B0D49C1E92E
:10A79800013060688368DB695BB1BDE8F041012284
:10A7A800184711F025FDBDE8F0410146064810F0B4
:10A7B800C7BDBDE8F08100BF6335020098350200CF
:10A7C800D9A50000B89C0020D034020010B50122A1
:10A7D8000021264811F01EFD01220021234811F016
:10A7E80014FD022200212148FFF71AFF022200214E
:10A7F8001E48FFF74DFF022200211C48FFF78AFF81
:10A8080001221A48114611F005FD01221748114688
:10A8180011F0FBFC022201211448FFF701FF02227C
:10A8280001211248FFF734FF022201210F48FFF7E8
:10A8380071FF00F077F9002005F010FC044640B1E4
:10A8480011F014FD2246BDE810400146084810F0FA
:10A8580077BD00F017F900F047F911F007FDBDE8E2
:10A8680010400146034810F06BBD00BF088200206D
:10A87800DE3502000736020010B50021054811F048
:10A88800EBFC044618B10021024811F0DAFC20461E
:10A8980010BD00BF0882002010B50121054811F045
:10A8A800DBFC044618B10121024811F0CAFC20461D
:10A8B80010BD00BF0882002038B511F0D7FC0B4C42
:10A8C80005462068FDF7A8FD02460B4608482946BC
:10A8D80010F036FD207901F09FFF11F0C7FC2279B6
:10A8E8000146BDE83840034810F02ABDC49C00204A
:10A8F800373602005E36020038B511F0B7FC0B4C53
:10A908000546A068FDF788FD02460B46084829461B
:10A9180010F016FD207B01F0E5FF11F0A7FC227B6B
:10A928000146BDE83840034810F00ABDC49C002029
:10A938007D360200A636020010B50221002000F084
:10A94800B3F9FEF789F8074C0749A060FEF7DCF871
:10A958000649FEF78DF90649FDF7CEFFFEF79AFA8C
:10A96800207310BDC49C00200000C84200404E4522
:10A978000000704210B50221012000F095F9FEF7A1
:10A988006BF8074C07492060FEF7BEF80649FEF74A
:10A998006FF90021FDF7B0FFFEF77CFA207110BDBA
:10A9A800C49C00200000C84200404E4510B50C462B
:10A9B80011F069FC2246BDE810400146014810F03C
:10A9C800BFBC00BFC236020010B50C4641B111F041
:10A9D8005AFC2246BDE810400146054810F0B0BCBC
:10A9E80011F051FCBDE810400146024810F0A8BC27
:10A9F800F03602001937020030B593B013F0C4FDE9
:10AA08000378044607AD032B27D8DFE803F00220BC
:10AA180022241549284617F06BF9A3790595627821
:10AA28001E210492A2780AA80392E278029222795F
:10AA38000192627900920D4A11F0AAFC11F023FCF0
:10AA48000AAA01460A4810F07BFC13B030BD094938
:10AA5800E0E70949DEE70949DCE70A212846084A10
:10AA680011F096FCD9E700BF3437020056370200D0
:10AA7800793702003B370200423702004C370200A8
:10AA8800C75F020030B589B011F0FDFB114D0146DA
:10AA980003AC114810F054FC0FCD0FC42B680222F0
:10AAA800236000230D49009303A806F0E7F9044644
:10AAB80040B111F0E8FB22460146094810F040FC7D
:10AAC80009B030BD11F0DFFB0146064810F038FC34
:10AAD800F6E700BFD028020099370200982A020042
:10AAE800B8370200E737020010B50B4807F0E6FA5E
:10AAF800044640B111F0C7FB2246BDE810400146AC
:10AB0800064810F01DBC11F0BEFBBDE81040014620
:10AB1800034810F015BC00BF608200201238020004
:10AB28004738020070B50B4C204616F0B1F980B1D9
:10AB3800A56820462B6808499847002809DB204665
:10AB480016F0A6F928B1054920462B68BDE87040E3
:10AB5800184770BD1C240200AE2A0200C22A020057
:10AB6800904270B51ED22823114C03FB0046727820
:10AB7800C2B1358C327995420CD33346002508335F
:10AB8800013AAA420FDC0A2303FB002204EB8204E9
:10AB9800A16007E00A2303FB0053013504EB83039C
:10ABA8009960358470BD5E68013543F8046BE8E749
:10ABB8008C820020F8B505469542084630D22822F6
:10ABC800184F02FB0572537843B3118C14798C42E9
:10ABD80024D1FDF745FF0A23013C03FB054407EB9D
:10ABE800840706463889FDF73BFF0F490546FDF700
:10ABF80083FE01463046FEF72FF9031E18BF0123D6
:10AC0800094928461C46FDF775FE01463046FEF701
:10AC18002DF900280CBF002304F001031846F8BDE5
:10AC28000023FBE78C8200208C2EBA43904270B53B
:10AC380005460B4E0CD2282404FB006463783BB114
:10AC4800FFF7B8FF50B994F82430013384F8243062
:10AC5800282303FB056696F8240070BD0023F5E75A
:10AC68008C8200208842034630B518D228220D4D28
:10AC780002FB0052507888B1108C78B100220A2467
:10AC8800114663435C1805EB8404A4680131C9B21A
:10AC98002244884292B2F5D8B2FBF0F030BD0020D1
:10ACA800FCE700BF8C82002001282DE9F347044609
:10ACB8000E4670D814233A4D03FB00535A7932B12B
:10ACC8000122187937491B8A82404A600B82142373
:10ACD800634355F803A005EB0309DAF8083050463A
:10ACE8005B68304998472823DFF8BC8003FB04835E
:10ACF8005B78002B3FD000284FDB2C4BB3F900705A
:10AD080099F805300BB3142299F8073002FB045167
:10AD1800042B0ABFDAF80830B9F80E301B8902FB99
:10AD2800045591F810907B43897AA879890648BF21
:10AD380009F1FF3901A948BF5FFA89F901930BF0BE
:10AD480037FB10B9019F47FA09F7BDB232462946C9
:10AD58002046FFF76BFFB0B9282532463946204612
:10AD6800FFF7FEFE002305FB0485314685F82430F5
:10AD7800FFF778FFE861282303FB0488B8F81C0074
:10AD880002B0BDE8F087324629462046FFF74EFF5D
:10AD98000228E1D8EFE70020F2E74FF6FF70EFE76F
:10ADA800A82A0200788200208C8200208CA1002032
:10ADB8002DE9F04F95B000AFBB61BB6F0446C3F3FC
:10ADC800C00388467A62FB6049B903784578807881
:10ADD80000EB83002044454519D8A0EB0408E3782C
:10ADE80094F802B07B61BBF1000F02D0BB6FD807AB
:10ADF80016D47B6953BB7B6A1BB141462046BA69AE
:10AE08009847454628465437BD46BDE8F08F461C4E
:10AE18003046FEF797FA0130304408F10108DAE7C6
:10AE2800237862683B629B003B613B6AFA6104EBF2
:10AE3800830A7B6A002B40F0018145460026D046F4
:10AE48000BEB0A09C14553D1DA4413E0BB6F9907EC
:10AE5800D1D523789A463B629B003B61636804EB3B
:10AE68008A0AFB617B6A002B7CD14546BBF1000F47
:10AE780051D15E46BB6F13F0050F0CBF4FF0020BAC
:10AE88004FF0010B7B690AEB4309BB6F03F0020328
:10AE98007B62CA45B6D01AF8021B1AF8013C54F86E
:10AEA8002380AB4B984502D3AA4B98453AD3FB680D
:10AEB800002B44D0F86911F024FA00283FD0E84666
:10AEC8008AB06A46A44B5361A44B9361FB69C2E9FB
:10AED800073140F201339384A14B42F8103F00231D
:10AEE8004FF432519F4801F0E1F9023DC546D0E7E1
:10AEF80018F8013B54F82300FEF724FAFB6F0130E1
:10AF08003BB1D7F880309E423EBFFB6F23F8160056
:10AF18000136054496E7BB6F13F004061CBF7E6A32
:10AF2800DA44A7E7FB6823B1F86911F0EAF90028C9
:10AF3800C5D1BB6FDA0705D4A5EB0B05A9E77B6A7A
:10AF4800002BA6D04046FEF7FDF9FB6F43B1D7F8BA
:10AF580080309E423FBFFA6F431C22F816300136FC
:10AF6800054496E7BBF1000F6ED0BB6F13F00406E3
:10AF78006DD0D946002607F140005A46514616F0D2
:10AF880082FD7B69DA445B007B607B690AEB4303E3
:10AF9800BB60BB6F03F002033B60BB68534558D1ED
:10AFA800B96F6378B86F890748BF002106EB0302C1
:10AFB80058BF4FEA5901C507D2B200F19A8010F084
:10AFC800040F14BF48460020FB616270A070E17056
:10AFD8002046BA6939697B6A9847051EFFF612AFA1
:10AFE8003B6A49462370FB69BA6963707B6984F8D8
:10AFF80002B0E37007F140007B6A9847B0F100099E
:10B00800C0F2A4803B69A8EB0B01C91A7B685046C3
:10B01800C91ABA697B6A98470028C0F2A5804FF020
:10B02800000BA94409EB000507F1300AB34562DBC0
:10B038000021BA6908467B6A9847E3E65E464FF006
:10B04800000907F1300098E75E46D94699E7B1460E
:10B0580097E71AF8021B3E4B1AF8015C54F82500D2
:10B06800984202D33B4B98421DD3FB6823B1F86941
:10B0780011F047F9002890D13B68FBB909F1280382
:10B0880007F1280209F1010003EB020C07F1500354
:10B0980009F1020953FA80F00CF8101C5FFA89F9DB
:10B0A80000F8105C79E7FB682BB1F86911F029F911
:10B0B80000287FF472AFBB6FDB0709D506F12803C0
:10B0C80007F12802711C9E1806F8205CCEB264E7CE
:10B0D800BB6F58077FF561AF09F1280307F1280214
:10B0E80009F1010103EB020909F8105C5FFA81F923
:10B0F80053E7002068E71BF80A3054F8239087F8D4
:10B108002F30FB6FFBB133F81B800121BA697B6AD2
:10B1180007F12F009847002826DB0544B8F1000FF7
:10B1280006D14846FEF70EF900F101081FFA88F823
:10B1380041464846BA697B6A9847002814DB0544AB
:10B148000BF1010B72E7D7F87C80DEE74D4659E634
:10B15800A4220200446F02006B3802001239020078
:10B16800050000013028020005464BE6014B1B682C
:10B17800184700BFDC820020014B1860704700BFF1
:10B18800DC82002007B50B460021024600910348E7
:10B1980000F08CF903B05DF804FB00BF75B1000046
:10B1A80030B5002587B0CDE903010446009503A911
:10B1B8000548059500F07AF9DDE904309842B8BFF2
:10B1C800255407B030BD00BF59C301002DE9F04731
:10B1D800058B04462807904611D4022905F0070577
:10B1E80040F0CD80204611F0AFFA78B10138218BBC
:10B1F800042811D8DFE800F0C3106D8595000129F7
:10B208000CBF45F0100545F02005258388F311880B
:10B21800BFF36F8FBDE8F08701F0070AAA4500F079
:10B22800A6800027B9463E46A368002B00F0BD80E3
:10B2380041F00801218388F31188BFF36F8FA1685B
:10B24800002900F0BB800D68002900F0B780334664
:10B2580052462046D1F80480C047002D76D02B688E
:10B2680029461D46F0E701F007035A1F012A1BD89B
:10B27800002221F00701062B276889B2C4E90022C1
:10B2880009D13B4603E0628B013262831B68002BC5
:10B29800F9D141F002012046218311F055FA002826
:10B2A8007BD041F0200177E0042B0AD121F007017F
:10B2B80089B22046218311F047FA10B141F02001EC
:10B2C8002183218B01F0070AAA4550D00027B946EF
:10B2D800AAE7236921F0070141F00601062DD3F8FA
:10B2E800009021832DD1B9F1000F40D041F0080121
:10B2F800218388F31188BFF36F8F20463949C847E7
:10B3080029E021F00701236941F0040189B2042DE5
:10B31800D3F804902183E6D000274FF0040A3E4674
:10B3280082E721F00701236941F0050189B2052D63
:10B33800D3F808902183D6D000274FF0050A3E465F
:10B3480072E700274FF0060A3E466DE72B4687E76F
:10B35800B9F1000FD1D14FF02003EFF3118883F337
:10B368001288BFF36F8F238B23F008032383258B69
:10B37800EA062ED525F01003238305F00705666934
:10B38800218B002EBFF66FAF00232768C4E9003376
:10B3980021F0070141F001012183218B4FF00009C1
:10B3A80001F0070AAA457FF43FAF002F9BD041F078
:10B3B8000801218388F31188BFF36F8F002FC7D04E
:10B3C8003D68394633465246204611F0E9F92F4682
:10B3D800F4E7AB067FF51AAF25F02003238305F0C9
:10B3E8000705FFE6D5C70100F0B5024601680A2740
:10B3F8000020074E0B461C780131355D6D0701D4DE
:10B408001360F0BD07FB0043A3F13000F2E700BF73
:10B41800A36C02002DE9F84F15469A46D378224AC4
:10B428006F2B12F803B080460F460BF0030B29D0A0
:10B4380024D8582B0CBF10260A26DDF8289032464F
:10B44800002340463946FDF745FD092AD4B21ED8E7
:10B458003034B045E4B277F1000709F8014D01D363
:10B46800D14511D82B789B0605D5082E15D1AB7878
:10B4780043F00803AB704846BDE8F88F03F0F703C4
:10B48800702BD7E70826D8E780460F46D7E7BBF1E9
:10B49800010F0CBF37345734DBE7102EEBD1AB78F4
:10B4A80043F01003E6E700BFA36C02002DE9F04F5C
:10B4B800824617461C46002597B00391387808B98C
:10B4C800284649E37B1C2528049306D00399D047D6
:10B4D8000028C0F241830135F0E11822002110A8AC
:10B4E80016F0DEFA7B78252B00F0A380002398461F
:10B4F8009E469C461846791C0E4611F8012B2B2AAD
:10B5080000F0C68000F2BD80202A00F0C480232A03
:10B5180000F0C4802BB19DF8483043F040038DF80B
:10B528004830B8F1000F05D09DF8483043F02003AB
:10B538008DF84830BEF1000F05D09DF8483043F033
:10B5480010038DF84830BCF1000F05D09DF8483045
:10B5580043F008038DF8483028B19DF8483043F08F
:10B5680004038DF848309DF8483003F0440144291D
:10B5780003D16FF386138DF848309DF848302A2A96
:10B5880043F0800309968DF8483040F08C809DF890
:10B59800493043F001038DF84930731C1A782E2A7C
:10B5A8000CBF012100219DF8492061F341028DF86B
:10B5B80049200CD15A1C09925A782A2A40F08380D3
:10B5C8009DF84920023342F004028DF849201A7888
:10B5D8006C2A00F0A48000F28680682A00F08C8033
:10B5E8006A2A00F0A5804C2A00F0AA801A4612F8B0
:10B5F800013B782B04928DF84B309DF8492000F2DE
:10B6080017816D2B00F2A980692B00F21181572B4D
:10B6180000F2BE80412B03D0453B022B00F208818B
:10B6280004229DF84A3062F302038DF84A30012360
:10B63800CAE0BA1C04928DF84B309DF84930DA07FD
:10B6480040F1FD8054F8049BB9F1000F07DA9DF82A
:10B658004820C9F1000942F004028DF848205E072D
:10B6680040F1F68054F804BBBBF1000F80F2F5807E
:10B678009DF849306FF341038DF849304FF0FF3B97
:10B68800EBE02D2A0DD0302A7FF444AF012333E7B5
:10B698004FF0010C30E74FF0010E2DE74FF0010895
:10B6A8002AE7012028E709A8FFF79EFE099BB34275
:10B6B8003FF474AF9DF848201390C00F60F3410227
:10B6C8008DF848206AE709A8FFF78EFE9DF84830F4
:10B6D8001490C3F3400242EAD07262F341038DF83A
:10B6E8004830099B73E7742A26D07A2A7FF47EAF04
:10B6F80006219DF849200CE05A78682A9DF84920CF
:10B7080006D1012161F3C6028DF8492002336DE7A5
:10B71800022161F3C6028DF84920013366E75A78A1
:10B728006C2A9DF8492001D10421EBE70321F0E7B9
:10B7380005219DF84920ECE707219DF84920E8E715
:10B74800BDF8482022F4F04222F0020242F480427E
:10B7580042F00202ADF84820DFE76E3BD9B2012380
:10B768008B4040F282410B4238D113F0240F52D162
:10B77800D8075DD503219DF84A3061F302038DF89F
:10B788004A3002F07803A3F140014B424B411BE0E1
:10B798000120A3F15801C9B200FA01F111F4624F76
:10B7A8007FF43EAF40F6010631421DD111F4043F4B
:10B7B8003ED09DF84A3060F3020302F07802402A36
:10B7C8008DF84A3034D000239DF84820C2F3400158
:10B7D8000B4363F341028DF848202EE702219DF8C0
:10B7E8004A3061F30203E8E702209DF84A1002F0AC
:10B7F800780260F30201402A8DF84A1002BF9DF8D2
:10B80800481041F001018DF84810632BDBD1131E5D
:10B8180018BF0123D8E703219DF84A3012F0780FAA
:10B8280061F302038DF84A3014BF01230023CBE7EC
:10B838009DF8483043F001038DF84830C3E79DF97F
:10B848004820002AACBF4FF0FF39DDF84C9006E7DE
:10B8580098077FF513AFDDF850B00023CDE9133317
:10B868009DF84A309DF8491003F00703012BC1F3F6
:10B87800C30133D1CB1E042B04D8DFE803F02146E3
:10B8880046212100236801294FEAE372CDE91032ED
:10B898001CD19DF94030DA17CDE9103204349DF8F7
:10B8A800483013F0030650D03A465046049B03999B
:10B8B80011F032F80028C0F24F810544049FFDE5DD
:10B8C80054F8043BDA17CDE91032E8E70229E5D14C
:10B8D8001AB243F3C033CDE91023DFE7022B24D19A
:10B8E800CB1E042B04D8DFE803F01810101818003A
:10B8F80001294FF0000254F8043B14D00229CDE985
:10B908001032CCD19BB21093C9E7073424F0070456
:10B91800F4E80223CDE91023C1E754F8043B10935F
:10B9280000231193BBE7DBB2CDE7042B08D1073422
:10B9380024F00704D4E900230834CDE91023AEE746
:10B94800032BACD154F8043BDDE79DF84B00782875
:10B95800B4D862281CD825283FF4B8AD5828ADD1F2
:10B96800DDE910010DF13E03009312AA0AABFFF7BF
:10B9780051FDBBF1000F074680F29780002F9DD044
:10B988000DF13E08A8EB0700002E4ED001304CE028
:10B998006338152892D801A252F820F023BA000083
:10B9A80089BA0000C5B80000C5B80000C5B80000D5
:10B9B800C5B8000089BA0000C5B80000C5B80000C5
:10B9C800C5B80000C5B8000011BB0000ADBA000042
:10B9D800D3BA0000C5B80000C5B80000FDB9000022
:10B9E800C5B80000ADBA0000C5B80000C5B8000071
:10B9F800ADBA0000BBF1000F109F0ADB594638466C
:10BA080016F0A3F907EB0008002F3FF457AF002604
:10BA18000BE03846FDF796FCF4E700260120109B62
:10BA28000DF129088DF828300AAF9DF84A3013F037
:10BA38001002059200F0838002305B06DDF84CB0FE
:10BA480048BF149B584448BFC018B9F1000F40F3D1
:10BA580090809DF84820A9EB0009C2F380035007A5
:10BA6800069300F18680510679D53EB13046039998
:10BA7800D047002870DB069B01351E4630226FE058
:10BA880019075ABFC3F300135E012B26DDE9102303
:10BA9800002BBFF665AF524263EB43032D26CDE979
:10BAA80010235DE700265BE700269DF848200DF18E
:10BAB8003E03DB1B6FF386129B458DF848207FF60B
:10BAC8005DAFABEB0303139358E7109880B30DF108
:10BAD8003E080AAB0021CDF8008012AAFFF79AFCB5
:10BAE800BDF84A30BBF1000F03F0EF0343F4F04315
:10BAF80043F010030746ADF84A30D5DA00283FF482
:10BB0800DDAEA8EB000082E7109B07293FF6D6AE12
:10BB1800DFE801F00C04060C08080C0C1D70CDE6DB
:10BB28001D80CBE6EA17C3E90052C7E61D60C5E6EB
:10BB3800DFF8BC800646A8F10507052075E71A0757
:10BB480048BF013079E71046079306920399D0471A
:10BB5800DDE90623002804DA17B0BDE8F08F2022BB
:10BB68004B461946002903F1FF33ECDC4D44994656
:10BB78006D1A2EB130460399D0470028ECDB013509
:10BB88009DF84A30DA0601D41B0705D53020039901
:10BB9800D0470028E0DB0135059B33B103999DF8B8
:10BBA8004B00D0470028D7DB0135AB4405E03020F7
:10BBB8000399D0470028CFDB0135ABEB0503002BF9
:10BBC800F5DC43463A465046039910F0A5FE002896
:10BBD800C2DB0544A944A9EB0503002B7FF76EAE31
:10BBE80020200399D0470028B6DB0135F3E700BFD2
:10BBF8004139020048B1054B054A1B68B3FBF2F313
:10BC08005843044B43F0010318477047B0840020A1
:10BC180040420F00A0290200F0B583B000AF381DE4
:10BC28000CF0D4FB284B98424BD10BF0E3FE041EDA
:10BC380015DA38790CF0D0FB6D4688B06A46234B8C
:10BC48005361234BC2E90634042342F8103F002312
:10BC58004FF401511F4800F029FBAD462DE040F696
:10BC680007031D4D7C71AE68FB8074687B6814B94E
:10BC78006FF05704E0E708212846184AA047041E39
:10BC8800DADB3369002BF3D00122082128469847D4
:10BC9800041ED1DB01233D79114AAB40C2F80435BB
:10BCA8007879FE7914F0D3FA0E4B45F00045B600CA
:10BCB800C0F880509D51002CBED120460C37BD469F
:10BCC800F0BD6FF01204B7E70000AD0B4639020073
:10BCD80072390200A02802003424020035BD000099
:10BCE8000070014080A1024038B5049CC4F30725C8
:10BCF80028460BF0E7FC00210A4BA20B02F0FC02DD
:10BD0800C0F8801099500123E4B2074AA34028469E
:10BD1800C2F808350BF08CFE2046BDE838400CF020
:10BD28005BBB00BF80A0024000700140F7B514461D
:10BD380083681B690BB100229847C4F30726304675
:10BD48000BF0C8FC0546304614F081FA0027104B6A
:10BD5800220E9200C0F880709F5030460BF0B2FC63
:10BD6800A20B0C4B02F0FC021344E2B242F0004278
:10BD78001A60094BC0F8802005F132020093304662
:10BD88003B460194520014F06BFA03B0F0BD00BFBB
:10BD980080A1024080A00240F1BC000014F0D9BA92
:10BDA8002DE9F047044607464FF00109DFF85080B7
:10BDB80014B93846BDE8F08794FAA4F5B5FA85F5C4
:10BDC80009FA05F32E0108EB05156FEA030A24EAC0
:10BDD80003042B7B002BEBD058F806301B694BB9BA
:10BDE8004644736804222846196807EA0A0700F0DF
:10BDF80049FADDE7284698470028D9D1F0E700BF7F
:10BE0800B828020030B5002289B00F490F4815F054
:10BE180090FC002200230024CDE906230E230C4DBC
:10BE2800CDE903344FF440722846CDE90144094B6B
:10BE3800094900940DF06EFC0849284615F0EEF803
:10BE4800204609B030BD00BF69BE0000F090002058
:10BE5800608C002039C1000098AE00208A390200A9
:10BE680001480DF0E5BD00BF348900202DE9F047F9
:10BE780080461F480F4610F0C7FF0646002830D0FE
:10BE880000252846BDE8F087237B73B12368DB686B
:10BE98000BB12046984723681B69D3B9636804220D
:10BEA8002046196800F0EEF9013610344C45EBD302
:10BEB800B8F1000FE5D0002DE2D02846FFF770FF5B
:10BEC8000546002FF7D000214FF4A4700EF0D4FAE5
:10BED800F1E7204698470028E0D00AFA06F31D4308
:10BEE800E2E705464FF0010A024CDFF80C90DDE767
:10BEF800E49C0020B8280200C8280200014B53F82F
:10BF080020007047E42A020008B5034608462BB112
:10BF1800044A136000F0F4FB002008BD6FF0150020
:10BF2800FBE700BFE082002010B5044C237813B96A
:10BF380003480DF07DFD0123237010BDAAA1002048
:10BF48003489002010B50446064810F05DFF3CB166
:10BF5800054BD3E8EF1F0139C3E8E21F002AF8D1E7
:10BF680010BD00BFDC9C0020E09C002000200146A2
:10BF7800034BD3E8EF0FC3E8E21F002AF9D170475B
:10BF8800DC9C002070B5FFF7F1FF0546074C084E12
:10BF9800B44200D370BD63685B792BB123685B68DA
:10BFA80013B12946204698471034F1E7B828020013
:10BFB800C828020010B5044C0449204610F07DFD45
:10BFC800034B1C6010BD00BF20880020D02A02004F
:10BFD800D49C002008B50023064A4FF40041137092
:10BFE800054A06481360FFF78FFFBDE80840FFF7D2
:10BFF800E1BF00BFABA10020DC9C00200DCE0100FA
:10C00800014600220023014810F078BD2088002056
:10C01800014810F011BE00BF20880020024B0146E5
:10C02800186810F059BE00BFD49C0020014810F0D9
:10C0380087BE00BF2088002070B5264B18780028DE
:10C0480047D0FFF7E5FF054670B1234BD3E8EF1F54
:10C058000139C3E8E21F002AF8D1204C204EB4422F
:10C068002DD32846FFF7DAFF1E4B1F4C1B68002B09
:10C0780019DD15F036FB4FF47A72A0FB020302FBC0
:10C088000131C30B43EA4143D4E900209B1A40F233
:10C09800E9324FEAD13161EB0001934271F10001BD
:10C0A80001D3FFF76FFFD4E9003213F57A7342F139
:10C0B8000002C4E90032BDE87040FFF7B7BF63680B
:10C0C8005B7923B12368294620461B6898471034BA
:10C0D800C5E770BDAAA10020E09C0020B828020096
:10C0E800C8280200DC9C0020E890002070B50D4DA7
:10C0F800297861B90120FFF7B9FE0B4C0B4EB44209
:10C1080006D3FFF799FF0028FBD101232B7070BDE0
:10C1180063685B791BB1236820469B689847103495
:10C12800EDE700BFABA10020B8280200C828020034
:10C1380000212DE9F0470846FFF798FE044648B36A
:10C1480040F267684FF000090EF0B0F91A4B18601A
:10C1580030B11A4B1B68092B02DD19480DF068FC39
:10C168000025184FDFF858A044B12046FFF718FE05
:10C17800044618B94FF0FF384FF0FF39FFF75CFF5E
:10C18800064628B9B5B942464B4650460DF076FCEE
:10C198003546E9E74FF0FF384FF0FF39D4E72B6811
:10C1A8009B691BB100222846114698471035BD42AD
:10C1B800F5D3E8E7044DFAE7D89C0020E09C00207E
:10C1C80034890020C8280200B828020013B518488E
:10C1D80010F01AFE174B1B787BB14FF02003EFF3DA
:10C1E800118483F31288BFF36F8FFFF725FF84F361
:10C1F8001188BFF36F8F02B010BD0F4B1B68002B67
:10C20800F9D050B9002200230C48CDE900234FF49F
:10C21800004200230EF088FBEDE70A28EBD107481F
:10C2280015F093FA064802B0BDE810400DF000BCC6
:10C23800E09C0020ABA10020D89C0020F0900020BA
:10C248003489002010B5064B04461B6898472146E0
:10C25800A060044810F0D0FCBDE81040FFF7B6BF5E
:10C26800E082002020880020044A054B9B1AB1EB8D
:10C27800D30F34BF52F8310000207047A8270200BE
:10C28800B8280200084B10B4C31A44681B110133C4
:10C29800237143689A7101224368196043685A718F
:10C2A80010BCFFF741BE00BFB82802002DE9F04FCF
:10C2B800C1F3CB448FB0C1F349260D469046994649
:10C2C80005901734002E3CD04FF0040B4FF00A0AAB
:10C2D800002209AF31460BAB4046CDF808B00197B4
:10C2E800CDF800A0CDE90B220D920796FEF760FD70
:10C2F800C0F30903181920F0070080081E4663F3ED
:10C3080052250693FFF77CFE044678B10022069B6F
:10C3180010300B900C930D924046CDE9017B0C4AEE
:10C328000799CDF800A00BABFEF742FD66F3522546
:10C338004B462A46204605990FB0BDE8F04F10F04D
:10C3480087BD24F007008008FFF75AFE0446EDE792
:10C358002DCE01000EB403B503AB53F8042B0146F0
:10C368000448019310F09BFD02B05DF804EB03B0A4
:10C37800704700BFCFCE0100CA0605D48B064CBF5C
:10C3880002490349FFF7E6BF704700BF05360200C0
:10C398007E6B02002DE9F04F89B09A46DDE91373F0
:10C3A8009DF848B00593159B04460D46169E0692C7
:10C3B8000493BBF1000F00F0858006F00803079393
:10C3C80010F02EFD06F002090246002849D020464A
:10C3D8008549FFF7BFFF8046B9F1000F08D016F076
:10C3E800440F40D12A4620468049FFF7B3FF8044D6
:10C3F80006F0010353B17E4B204653F82B207D4BAA
:10C408007D49002A08BF1A46FFF7A4FF06F0080373
:10C41800002B54D0794B204653F82B207849FFF74E
:10C4280099FF0546069B2BB11A4620467549FFF72A
:10C4380091FF0544BAF1000F05D0524620467249D3
:10C44800FFF788FF05444544002F49D1049B002B82
:10C458004FD1F30700F1C18031462046FFF78CFF2A
:10C46800B5E08046B8E7694B18680028BFD0684B2C
:10C478004FF47A791B684FF46161B5FBF3F5B5FBAE
:10C48800F0F300FB135509FB05F5B3FBF1F2B5FB1F
:10C49800F0FE4FF03C0C01FB123100FB1E55B1FBC6
:10C4A800FCF309FB05F5B5FBF0F50CFB1311204671
:10C4B8000091CDE901E55749FFF74CFF97E706F0F2
:10C4C8000805AFE7BAF1010F06D1002F65D1049B2B
:10C4D800002B7CD000250CE0002FF8D04E485DE002
:10C4E8004E483B4622464E490FF0DAFE049B002B8D
:10C4F80069D0DFF83081DFF83091049F3146102F82
:10C50800204628BF10274FF0000AFFF735FF554592
:10C5180046DC059B494620461A78FFF71BFF4FF07B
:10C52800010A1AF0070F03D141462046FFF712FF10
:10C5380057453CD9059B4946204613F80A20FFF782
:10C5480009FF0AF1010ABAF1100FEAD14FF0000A07
:10C5580020463649FFF7FEFE5246059B20469A5C68
:10C56800334B995C11F0970F08BF2E223149FFF722
:10C57800F1FE0AF1010ABAF1100F1DD01AF0070FE7
:10C5880003D141462046FFF7E5FE57455246E4D819
:10C5980041462046FFF7DEFEEBE720485D46A0E770
:10C5A80041462046FFF7D6FE0AF1010AAFE72046CA
:10C5B8002149FFF7CFFEC4E7059B3B440593049B45
:10C5C800DB1B049399D1BBF1000F7FF442AF2046E7
:10C5D80009B0BDE8F04F10F069BC2046054A06498D
:10C5E800FFF7B8FE38E700BFA4390200A8390200F7
:10C5F800F42A02009F390200AC480200082B02000E
:10C60800CD390200D3390200D7390200EC9C002052
:10C61800E89C0020B1390200FDCE0100CFCE010018
:10C62800A7CE01004A6B0200DC390200E2390200A1
:10C63800A36C0200E4390200486B02002DE9F041C6
:10C648000F884B6805460C4690468E6886B0C7F33F
:10C6580082175BB1134A9B1A43F3CF0100291FDBF2
:10C668002078C0F3C200FFF7FFFD0346214651F8CA
:10C67800102B6088C2F34922002A01EB020408BF8C
:10C688000021C0F3CB00CDE90308CDE90114002255
:10C69800314628460097FFF77DFE06B0BDE8F081D9
:10C6A8000023E3E7A827020042F20F7373B58B4219
:10C6B80028BF0B4605680446052168460D4A0FF059
:10C6C80067FE0646636828460B225B680A4910F035
:10C6D800D9FB63683246694628465B6810F0D2FB8E
:10C6E80063681B2228465B68044910F0CBFB02B044
:10C6F80070BD00BFF4430200033A0200E7390200AC
:10C7080000210123064A904206D8064A01B90123AE
:10C718001360054B18607047012140085B00F2E781
:10C7280040420F00E89C0020EC9C0020014B0020B8
:10C7380019607047049D00200122024B02481A70BC
:10C7480010F0B4BBADA10020382B02000148FFF760
:10C75800ABBF00BF382B020010B5064B0C4618685B
:10C76800FFF7CCFB2146BDE8104003460F220248E4
:10C77800184700BF049D0020382B0200F8B50D466D
:10C788000446064F4618B44201D12846F8BD14F8AD
:10C79800011BBB6801485B689847F4E7EC2302007B
:10C7A80010B5084C86B024788DF8174001240294FF
:10C7B8000DF117040194BDF82040009412F0A7FD74
:10C7C80006B010BD0B88002080B50D4A0D4B00AF98
:10C7D8008AB0012908BF13466A460B4951610B49C3
:10C7E800C2E9061340F201331384094B42F8103FA3
:10C7F80000234FF413510748FFF758FDBD4680BD8D
:10C80800713A0200793A0200823A02009B3A020029
:10C8180004000001B027020000B5642889B08DF833
:10C82800070019D80E4B18221870002102A815F01D
:10C8380037F90C4B002003930DF1070304930123F0
:10C8480002A9ADF8143007F091FC10F1800F08BF71
:10C85800002009B05DF804FB6FF01500F9E700BF90
:10C868000B880020C02B02000122024B00201A7006
:10C87800704700BFB0A100201FB501240294044CEA
:10C888000194BDF81840009412F041FD04B010BDA9
:10C89800B0A1002080B50D4A0D4B00AF8AB0012928
:10C8A80008BF13466A460B4951610B49C2E9061392
:10C8B80040F201331384094B42F8103F00234FF430
:10C8C80013510748FFF7F2FCBD4680BD713A0200DC
:10C8D800793A0200B43A0200CD3A0200040000019D
:10C8E80048280200062310B50C4C86B01822607048
:10C8F80000216846237015F0D3F8094B6946CDE945
:10C90800013402230020ADF80C3007F02FFC10F1A1
:10C91800800F08BF002006B010BD00BFAEA10020E8
:10C92800102C020098B500AF98B96C4688B06A46DA
:10C93800154B16485361164B4FF4C25193610323AC
:10C9480042F8103F10F001FB6FF01500A546BD46F8
:10C9580098BD836893B96C4688B06A460D4B0B48FE
:10C9680053610B4B4FF4C2519361032342F8103FBC
:10C9780010F0EBFA6FF00400A546E8E71B680BB16E
:10C988009847E4E71846E2E7E63A02005028020032
:10C99800AE3B0200FB3A0200B0B500AF08B101B1EE
:10C9A8009AB96C4688B06A46164B17485361174BBC
:10C9B8004FF4C2519361032342F8103F10F0C5FAB7
:10C9C8006FF01500A546BD46B0BD84680CB1E5689A
:10C9D80095B96C4688B06A460D4B0B4853610B4BB2
:10C9E8004FF4C2519361032342F8103F10F0ADFA9F
:10C9F8006FF00400A546E6E741F8040BE3689847A2
:10CA0800E1E700BF1D3B020050280200903B0200F6
:10CA1800FB3A0200B0B51346044600AF98B96C461D
:10CA280088B06A46204B21485361214B4FF4C251CC
:10CA38009361032342F8103F10F087FA6FF0150056
:10CA4800A546BD46B0BD006890B96C4688B06A4638
:10CA5800184B16485361164B4FF4C2519361032388
:10CA680042F8103F10F071FA6FF00100A546E8E7B0
:10CA780082680AB1956895B96C4688B06A460E4BCB
:10CA88000A4853610A4B4FF4C2519361032342F899
:10CA9800103F10F05AFA6FF00400A546D1E70A4695
:10CAA8006168A847CDE700BF4D3B0200502802004F
:10CAB8007F3B0200623B0200FB3A02000023012296
:10CAC80013B50446CDE90032074BD0E909120CF042
:10CAD800F3F9A36E1B6823B1E06E02B0BDE8104005
:10CAE800184702B010BD00BF063602000020014BF7
:10CAF800186070470000072030B50C460E4985B015
:10CB08000291D0F898110546CDE9003100F1E00115
:10CB18004FF0FF3320460CF015FA50B9012384F882
:10CB28006430D5F8943123B1204605B0BDE83040D3
:10CB3800184705B030BD00BF49D0010038B50C46D4
:10CB48001146054610F07EFA034638B928460449CE
:10CB580010F078FA03460020236038BD0120FBE777
:10CB6800063602002DE9F04F012381460569466823
:10CB780085B005F55577D7E8EF2F002A03D1C7E828
:10CB8800E13F0029F7D140F0B880B368B26A043BAE
:10CB98002632B3EB420F4FEA420126BFB3FBF1F353
:10CBA800B3FA83F300234FF0010428BFC3F1200335
:10CBB800013B9C4005F5D87800F0998010220821A7
:10CBC80070689A4002EB4402043099400932C5F873
:10CBD8004802063122F003020A44B16A01FA03FC52
:10CBE800510001EB4C01C5F84C12B16A994000EBB9
:10CBF8004103C5F840320333134423F00303C5F857
:10CC08003C327368C5F84442C5F838323C4B40465C
:10CC1800C5E9A363316800F003FA044630BBD9F8CC
:10CC280004A0D9F81090DAE9073409F52A7B012B1A
:10CC3800584608BF103C14F0A0FB0023DAF8240083
:10CC480030494FF4806201EB802100935846234617
:10CC58000DF070F809F526702B4914F050FBDAF83E
:10CC6800140083685C681CB96FF05704002137E032
:10CC78004B46264ADAF81810A04704460028F5D192
:10CC8800DAF8140083681B69002BEDD00122DAF86A
:10CC98001810984704460028E8D11D4B2846C5F8C7
:10CCA80094311C4BC5F898311B4B0393D5F8F831D8
:10CCB8000293D5F8F031CDE90083D5F85032B26A45
:10CCC800D5F8501300F076F904460028CED105F1C6
:10CCD800E0000CF0DFF90028C5F858030ADB022150
:10CCE800384610F0FBF9204605B0BDE8F08F6FF02C
:10CCF8000B04BBE76FF01504B8E76FF07704F2E7B1
:10CD0800CDD0010098B1002085D0010079D0010074
:10CD1800C5CA00009FD0010015D101002DE9F843D4
:10CD280006464FF001090569D0F8048005F55577E6
:10CD3800D7E8EF3F022B03D1C7E8E29F002AF7D1DB
:10CD480049D1264805F14001FCF7F2FA20B16FF00D
:10CD58000F042046BDE8F883204805F1B001FCF730
:10CD6800E7FA0028F3D12846D5F8501310F022FA34
:10CD7800044670BB71683669486983681B6933B3B8
:10CD8800224689699847044618BB06F52A7649461B
:10CD980030460DF007F8304605F5D87601F01AFA56
:10CDA8003046D8F8001010F042FA044688B9014617
:10CDB800E822304614F074FE21464FF4D872284613
:10CDC80014F06EFE2146384610F088F9C1E76FF07E
:10CDD80057040221F7E76FF07704BAE70636020036
:10CDE80013B504460846216901F55571D1E8AF1F0E
:10CDF800022910D193B1A0B10121CDE90031134628
:10CE0800D0E909120CF058F8074B984208BF6FF0A8
:10CE18000B0002B010BD6FF00F00FAE76FF04C0086
:10CE2800F7E76FF00100F4E72EF8FFFF2DE9F7436D
:10CE380088461546066906F55573D3E8AF3F022BB9
:10CE48005FD1136823B96FF0150003B0BDE8F08314
:10CE58001B78002BF7D0D6F85093B9F1000F33D1D7
:10CE680006F5CE774FF0FF324FF0FF3338460CF01F
:10CE7800F5FC30462A6801A9FFF760FE019C1CB941
:10CE8800384610F029F9DEE705F10803A3666B6957
:10CE980084F86490E366E46360B1384610F01CF9E6
:10CEA80021463046236E2A68FFF726FE0020C8F880
:10CEB8000040CAE72022296804F1400014F032FF3C
:10CEC800384610F009F9F1E730460F4910F0BAF882
:10CED80004460028B7D005F1080383666B69C06370
:10CEE800C366002380F8643020222968403014F09B
:10CEF80019FF22460121304600F03EF80028D5D01F
:10CF0800A1E76FF00F00A0E7063602002DE9F04F09
:10CF180005460E4690460027D0F8A4A085B0AAF58D
:10CF2800A47421463046FCF703FAE0B9114BA4F18A
:10CF3800400B0293DAF810303246CDE900832946D7
:10CF48004FF0FF335846AAF5C4790BF0FBFF60B9E0
:10CF58007023012203FB079383F86420DAF80C306E
:10CF68000BB158469847703417B105B0BDE8F08F3B
:10CF78000127D6E7B9D101001FB5144690B18AB18F
:10CF8800012912D10A4B00F1E0010293D0F898313F
:10CF9800403201934FF0FF33204600930BF0D2FF4D
:10CFA80004B010BD6FF01500FAE70020F8E700BFE5
:10CFB800B9D101002DE9F04385B00F46DDE90C81B8
:10CFC8001446DDE90E251E4628B321B3DFF84CC010
:10CFD80000F1E009002D08BF654697B9CDE9024484
:10CFE80000F5C474204613F040FF02ABCDE90043BE
:10CFF8002A463346414648460CF072F805B0BDE86B
:10D00800F083002241460C9248462A4605B0BDE806
:10D01800F0430CF075B96FF01500EFE715CF00007D
:10D02800F0B50E46044689B000286FD001230246A9
:10D03800C3630023D0F89810364F403040F80C7C7A
:10D0480042F8301FCDE901334FF0FF330093C36D31
:10D0580013F00CFA304A06AB92E8030083E80300A9
:10D0680018460BF049FE0546D8B904F134000BF018
:10D0780023FE0546A8B93946284805AA13F0C8F979
:10D08800054670B9059B9A6872B10C33D4F89400C0
:10D09800C4F8A03010F0BDF8C4F8D40030B96FF06F
:10D0A8000B05284609B0F0BD0346EFE7D4F8940015
:10D0B80010F0AFF8C4F8D8000028F0D0D4F88C30BD
:10D0C800D4F8A010C4F8A8300423C4F8AC30C4F8CD
:10D0D800C4300223A362124BB4F89420D4F8D4705D
:10D0E800C4F8B810C4F8D010D4F89010236204F132
:10D0F800A403A4F8B020C4F8A470C4F8C010A4F81D
:10D10800C820C4F8BC00A661E362CAE76FF0150541
:10D11800C7E700BFD93B0200E4280200E33B020056
:10D12800C82C02002DE9F84305464FF02003EFF321
:10D13800118683F31288BFF36F8F4FF00C090D4BE4
:10D148000D4F1C68DFF834802CB986F31188BFF3C3
:10D158006F8FBDE8F883D4E90123002D18BF13466B
:10D168002BB198F8142009FB02F2B85C98472468A0
:10D17800EAE700BF209D0020149D002040A1002068
:10D18800012270B5164B1C7D04F01F039A40D04352
:10D19800144B610903EB8103D3E8EF1F01EA000593
:10D1A800C3E8E65F002EF7D10A4213D00E4B0F4DAD
:10D1B8008BB10C236343EA185178E85C0FF002FE48
:10D1C8000020FFF7AFFF0C235C4300232A192B51E3
:10D1D800C2E9013370BD83F31188BFF36F8FEFE7A6
:10D1E80040A10020289D0020CDCD0100149D0020E5
:10D1F8002DE9F041324B07461D7D4FF02003EFF338
:10D20800118883F31288BFF36F8F0C246C432D4B66
:10D218002D4E195D1A19002947D007CA06EB040CD0
:10D228008CE8070000221A5588F31188BFF36F8F26
:10D238000C236B43F05CF218A8B37B1C10D04FF49E
:10D2480000400021D2F808C0204C0023ECFB00412C
:10D258001F4A2046FBF73EFE0121381A14F021FA36
:10D268000DF04CF80120FFF75DFF1A4B6A0903EB3C
:10D278008203012205F01F018A40D3E8EF0F104313
:10D28800C3E8E10F0029F8D1134B3BB10C2303FB92
:10D2980005F033185978305C0FF088FDFFF770FF00
:10D2A8000DF040F80120BDE8F0810146284600F065
:10D2B80015F80028B8D007C8344484E80700B3E755
:10D2C80040A10020089D0020149D00203F420F002F
:10D2D80040420F00289D0020B5CD01002DE9F04FF8
:10D2E80085B00E4603A900F043F84FF40047044602
:10D2F8004FF0000B1B4B039DD3F800A0431E1BB23D
:10D3080003EB4303DFF8608005EB830524B9A146EE
:10D31800484605B0BDE8F08FC44659466868002302
:10D32800E0FB07C1114A6046FBF7D4FDC4465946E5
:10D338000190A8680023E0FB07C10C4A6046FBF790
:10D34800C9FDBAF1FF3FA94601D0824505D9731C32
:10D35800DED0019B1844B042DAD9013CA4B20C3D9E
:10D36800D4E700BF888300203F420F0040420F00EF
:10D3780008B9024B0B600020704700BFEC2C02007C
:10D388000449431E0F3013F8012F8A5C83421A7038
:10D39800F9D17047EE3B0200F0B50746264E8DB036
:10D3A80001AD0C460FCE0FC50FCE0FC596E807008E
:10D3B80085E807003846002F39D0002C39D0381FAF
:10D3C8000246214610344B780D781B0443EA056366
:10D3D800CD7804312B4311F8025C8C4243EA0523D3
:10D3E80042F8043FEFD10421144C8A07036916D18F
:10D3F800C3F30742A55C1A0EA25C42EA0562C3F3B6
:10D408000725655DDBB2E35C42EA054242EA032296
:10D4180021F0030330336B4453F82C3C534050F84D
:10D42800042F013153402C290361DED101200DB0B6
:10D43800F0BD2046FBE700BFEC280200EE3B0200EF
:10D448002DE9F04F002703689DB002934368DFF889
:10D45800BCA103938368DDE902460493C36805937E
:10D468000369DDE904BE0693436907938369DDE92F
:10D47800062C0893C36998460993089B0093CD59D5
:10D488000CAB2DBA5AF8049BDD514FEAF223A9449C
:10D4980083EAB213009D83EA72634B4425EA0205CE
:10D4A80002EA0C0985EA09052B44434486EA0B0580
:10D4B8004FEA743888EAB408254006EA0B0985EA79
:10D4C800090588EAB4580437A844402F03EB0E0531
:10D4D8004344DE46DDF8008040F088804FF0100AB3
:10D4E8004B490A9151460AF1010A0DF1700E0AF0F2
:10D4F8000F070EEB870757F8407C01F00F094FEA3A
:10D50800B748019788EAF71801F10E0707F00F07E7
:10D518000EEB870757F8407C09314FEAF74E8EEA41
:10D52800774ECDF82CE001F00F010DF1700E0EEBE7
:10D5380081010EEB890959F840EC51F8401CBAF109
:10D54800400F7144DDF804E088EADE08DDF82CE0DD
:10D5580041448EEA972E714405EA02084FEAF52EF7
:10D568002CEA050787EA08078EEAB51EDDF8288049
:10D578008EEA756E774458F804EF49F8401C7744F2
:10D588000F4400994FEA733E394484EA0607CDF800
:10D5980028808EEAB30E07EA030704EA06088EEA33
:10D5A800B35E87EA080777440F4401EB0B0ECDF80A
:10D5B80000C0B34622D10299394401600399194445
:10D5C800049B416023448360059B3344C360069BEE
:10D5D80073440361079B2B444361089B1344836195
:10D5E800099B6344C3611DB0BDE8F08FB346CDF815
:10D5F80000C0264694461C462A4640E794462646DE
:10D608002A461C4675463B466CE700BFEC2C0200D8
:10D61800282D020010B50446C8B1702200210FF071
:10D6280043FE0B4B0B4A0C49C4E900230B4B0C4837
:10D63800C4E902130B4BC4E9040301200A4BA3619C
:10D6480003F17453A3F52303A3F69243E36110BDDA
:10D6580085AE67BB67E6096A72F36E3C3AF54FA57B
:10D668007F520E518C68059BABD9831F014910224C
:10D678000A60704710ED00E072B6404080F31188F0
:10D68800BFF36F8FBFF34F8F30BF62B6BFF36F8F9B
:10D69800704700BF72B6494081F3118820BF80F3FC
:10D6A800118862B6704700BF2DE9F84F82460C46D4
:10D6B80000AF002952D0D1E900126E468AB0A368A3
:10D6C8006D464FF0060BA8462848DFF8A490C5E938
:10D6D8000823C5E90691686148F810BF002342464F
:10D6E8004FF441512348FEF7E1FDD4E90312B54652
:10D6F8006369AD462048C5E90712C5E905096B62AB
:10D70800C5F810B0002342464FF441511948FEF7BE
:10D71800CDFDB54688B0E3696D464FF0040BA846C9
:10D72800164AEB61C5E9052948F810BF00234246AF
:10D738004FF401510F48FEF7B9FDB546A369AD4650
:10D748000F4AEB61C5E90529C5F810B00023424628
:10D758004FF401510748FEF7A9FDB546214650464A
:10D768000BF0E2FDBD46BDE8F88F00BFEE3C0200BD
:10D77800993D020088280200213D0200543D020024
:10D78800673D020040B2002807DB01234109034A34
:10D7980000F01F00834042F82130704700E100E0AC
:10D7A80040B200280CDB01220649430900F01F00A3
:10D7B8008240203341F82320BFF34F8FBFF36F8F90
:10D7C800704700BF00E100E0054B420953F82220F2
:10D7D800012300F01F0003FA00F01040704700BF5B
:10D7E80000E100E040B2002801F10101ACBF00F106
:10D7F8006040064B4FEA4111C9B2ABBF00F561402A
:10D8080000F00F0080F800131954704714ED00E081
:10D8180030BFFFF7FDBF00BF0B4A08B50B4B22F026
:10D828007F029A60BFF34F8FBFF36F8FD3F88820C2
:10D8380022F47002C3F888200BF038FE0CF0AEFE1C
:10D8480000F042FC0BF072FE0080000000ED00E0EA
:10D85800094A0A49936809689867D96708494B686B
:10D8680043F080534B60002383F31188BFF36F8F1D
:10D878009368D86F704700BF40A100206033020052
:10D8880000ED00E015498A6882F881E04FF0300029
:10D898001044EFF3098C80E8F01F202080F31288F1
:10D8A800BFF36F8F0E4F4FF00066CA698A603E6003
:10D8B80092F981E0906F0023936780F3118802F159
:10D8C800300090E8F01F8CF3098802F1000004B5DD
:10D8D80010F037F9BDE804407047000040A100206F
:10D8E80004ED00E01EF0040F0CBFEFF30880EFF327
:10D8F8000980816911F8021C0229FFD001B510F0D6
:10D9080011F901BD42F8203C009B0D4942F81C3C2E
:10D91800019B21F0010142F8183C029B42F8081CC7
:10D9280042F8143C4FF0807342F8043C00238367AC
:10D938004FF43C43203A0265C0F88030704700BF7E
:10D94800B3C30100084B9860836E83F30B881046BD
:10D9580081F30988002163B681F31188BFF36F8FC3
:10D96800002200230EF021FD40A1002001B572B66F
:10D978000B4A906900281EBF0021916113F055FBE6
:10D9880062B6EFF30580A0F110004FEAC000054928
:10D99800014409C99847BDE8014003490847000008
:10D9A80040A100204C240200B5D90000044B99681E
:10D9B800D869884203D003494FF080520A60704703
:10D9C80040A1002004ED00E02DE9F843E84600AF4F
:10D9D80088B006460D466A464FF003094D4B4E4C3B
:10D9E800536194614FF4C2514C4842F8109F10F0B3
:10D9F800ACF84B4BC5469B6ADB060CD588B06A462B
:10DA0800484B4FF4C251C2E90534444842F8109FCC
:10DA180010F09BF8C546424B9B6A18070ED5E8469E
:10DA280088B06A46404B4FF4C251C2E9053403231B
:10DA38003A4842F8103F10F088F8C546DFF8E09001
:10DA4800D9F8283099072AD5E84688B06A46374B6E
:10DA58004FF4C251C2E905340323304842F8103F5D
:10DA680010F073F8D9F83430D9F82820C5461206D2
:10DA780015D588B06A46D36104232D492748C2E9E1
:10DA880005144FF4015142F8103F10F05EF8C546F6
:10DA98002EB1D9F8283023F08003C9F82830204B5C
:10DAA8009B6ADE070ED56E4688B06A46214B4FF456
:10DAB800C251C2E905340323184842F8103F10F058
:10DAC80044F8B546164B9B6A98060ED56E4688B044
